:100000000C94F6020C941E030C941E030C941E0315
:100010000C941E030C941E030C941E030C941E03DC
:100020000C941E030C941E030C941E030C941E03CC
:100030000C941E030C941E030C941E030C941E03BC
:100040000C942B060C941E030C9405050C94DF04F1
:100050000C941E030C941E030C941E030C941E039C
:100060000C9475060C941E03D20AD80AE40AD40A2A
:10007000DA0AE00ADC0AA00DA60DBC0DA20DA80D3F
:10008000AE0DAA0D6364696E6F70737578585B006E
:1000900000000000003E5B4F5B3E3E6B4F6B3E1C22
:1000A0003E7C3E1C183C7E3C181C577D571C1C5E39
:1000B0007F5E1C00183C1800FFE7C3E7FF00182410
:1000C0001800FFE7DBE7FF30483A060E26297929BA
:1000D00026407F050507407F05253F5A3CE73C5AEF
:1000E0007F3E1C1C08081C1C3E7F14227F22145FCC
:1000F0005F005F5F06097F017F006689956A606027
:1001000060606094A2FFA29408047E040810207E20
:10011000201008082A1C08081C2A08081E101010A5
:10012000100C1E0C1E0C30383E3830060E3E0E06EB
:10013000000000000000005F00000007000700143E
:100140007F147F14242A7F2A1223130864623649FD
:100150005620500008070300001C224100004122E5
:100160001C002A1C7F1C2A08083E080800807030EA
:100170000008080808080000606000201008040259
:100180003E5149453E00427F40007249494946215F
:1001900041494D331814127F1027454545393C4AD3
:1001A00049493141211109073649494936464949EA
:1001B000291E000014000000403400000008142232
:1001C00041141414141400412214080201590906A0
:1001D0003E415D594E7C1211127C7F494949363EA1
:1001E000414141227F4141413E7F494949417F0987
:1001F0000909013E414151737F0808087F00417F92
:1002000041002040413F017F081422417F4040408F
:10021000407F021C027F7F0408107F3E4141413E27
:100220007F090909063E4151215E7F0919294626A9
:100230004949493203017F01033F4040403F1F20AD
:1002400040201F3F4038403F631408146303047884
:1002500004036159494D43007F41414102040810A4
:1002600020004141417F04020102044040404040DF
:10027000000307080020545478407F28444438384D
:1002800044444428384444287F38545454180008BF
:100290007E090218A4A49C787F0804047800447D99
:1002A00040002040403D007F1028440000417F4036
:1002B000007C047804787C0804047838444444388A
:1002C000FC1824241818242418FC7C08040408486A
:1002D0005454542404043F44243C4040207C1C20BB
:1002E00040201C3C4030403C44281028444C909016
:1002F000907C4464544C4400083641000000770070
:1003000000004136080002010204023C2623263C7C
:100310001EA1A161123A4040207A38545455592107
:1003200055557941225454784221555478402054EF
:100330005579400C1E52721239555555593954543D
:10034000545939555454580000457C410002457DAC
:10035000420001457C407D1211127DF0282528F0D5
:100360007C545545002054547C547C0A097F493202
:10037000494949323A4444443A324A4848303A4179
:1003800041217A3A42402078009DA0A07D3D424222
:10039000423D3D4040403D3C24FF2424487E4943AB
:1003A000662B2FFC2F2BFF0929F620C0887E09031E
:1003B00020545479410000447D413048484A323845
:1003C0004040227A007A0A0A727D0D19317D262971
:1003D000292F28262929292630484D402038080869
:1003E000080808080808382F10C8ACBA2F1028349D
:1003F000FA00007B000008142A142222142A140890
:100400005500550055AA55AA55AAFF55FF55FF009E
:100410000000FF00101010FF00141414FF00101053
:10042000FF00FF1010F010F0141414FC001414F767
:1004300000FF0000FF00FF1414F404FC1414171054
:100440001F10101F101F1414141F00101010F000A4
:100450000000001F101010101F10101010F01000DE
:100460000000FF101010101010101010FF100000EE
:1004700000FF140000FF00FF00001F10170000FC29
:1004800004F414141710171414F404F40000FF00FB
:10049000F714141414141414F700F7141414171484
:1004A00010101F101F141414F4141010F010F0008A
:1004B000001F101F0000001F14000000FC140000AB
:1004C000F010F01010FF10FF141414FF141010108F
:1004D0001F00000000F010FFFFFFFFFFF0F0F0F042
:1004E000F0FFFFFF0000000000FFFF0F0F0F0F0FD6
:1004F0003844443844FC4A4A4A347E020206060222
:100500007E027E0263554941633844443C04407E88
:10051000201E2006027E020299A5E7A5991C2A4901
:100520002A1C4C7201724C304A4D4D30304878488C
:1005300030BC625A463D3E494949007E0101017E78
:100540002A2A2A2A2A44445F444440514A444040CB
:10055000444A51400000FF0103E080FF000008080A
:100560006B6B083612362436060F090F060000188A
:10057000180000001010003040FF0101001F0101B1
:100580001E00191D1712003C3C3C3C0000000000FE
:1005900000000000240027002A00000000002500C1
:1005A00028002B000000000023002600290004047E
:1005B000040404040404020202020202030303030B
:1005C00003030102040810204080010204081020E7
:1005D00001020408102000000008000201000003CE
:1005E00004070000000000000000AA0B11241FBE39
:1005F000CFEFD8E0DEBFCDBF13E0A0E0B1E0EEE288
:10060000F5E302C005900D92AE33B107D9F725E0AE
:10061000AEE3B3E001C01D92AB33B207E1F712E0E5
:10062000C6EFD2E004C02197FE010E94D712C53F59
:10063000D107C9F70E94E30B0C94951A0C940000A3
:10064000FC01538D448D252F30E0842F90E0821BD8
:10065000930B541710F0CF96089501970895FC015D
:10066000918D828D981761F0828DDF01A80FB11DE9
:100670005D968C91928D9F5F9F73928F90E008950D
:100680008FEF9FEF0895FC01918D828D981731F0C7
:10069000828DE80FF11D858D90E008958FEF9FEF1B
:1006A0000895FC01918D228D892F90E0805C9F4FF1
:1006B000821B91098F739927089588E394E00E9423
:1006C000510321E0892B09F420E0822F0895FC01D9
:1006D000848DDF01A80FB11DA35ABF4F2C91848DCB
:1006E00090E001968F739927848FA689B7892C9300
:1006F000A089B1898C9180648C93938D848D98139B
:1007000006C00288F389E02D80818F7D8083089563
:10071000EF92FF920F931F93CF93DF93EC0181E051
:10072000888F9B8D8C8D981305C0E889F98980810D
:1007300085FD24C0F62E0B8D10E00F5F1F4F0F7349
:100740001127E02E8C8DE8120CC00FB607FCFACFF3
:10075000E889F989808185FFF5CFCE010E94670382
:10076000F1CF8B8DFE01E80FF11DE35AFF4FF082B0
:100770000B8FEA89FB898081806207C0EE89FF893F
:100780006083E889F98980818064808381E090E0DA
:10079000DF91CF911F910F91FF90EF900895CF932C
:1007A000DF93EC01888D8823C9F0EA89FB89808179
:1007B00085FD05C0A889B9898C9186FD0FC00FB64B
:1007C00007FCF5CF808185FFF2CFA889B9898C918C
:1007D00085FFEDCFCE010E946703E7CFDF91CF9178
:1007E000089580E090E0892B29F00E945D0381113B
:1007F0000C9400000895833081F028F4813099F042
:100800008230A1F008958730A9F08830B9F08430A3
:10081000D1F4809180008F7D03C0809180008F771C
:1008200080938000089584B58F7702C084B58F7D52
:1008300084BD08958091B0008F7703C08091B0008F
:100840008F7D8093B000089585ED8093BC008091EA
:10085000BC0084FDFCCF1092130408954091640302
:10086000262F30E0240F311D21323105DCF4209198
:1008700013042430C9F4FC0180E090E0861758F49A
:10088000309164032191DC01AE5BBC4FA30FB11D1D
:100890002C930196F3CF80916403680F60936403F7
:1008A00080E0089581E0089582E00895089581E050
:1008B00090E03091930320919203321710F480E07E
:1008C00090E091958195910908958091930390917D
:1008D0009203891730F48F5F8093930380E090E058
:1008E00008958FEF9FEF08958091920390E02091FB
:1008F0009303821B91090895CF92DF92EF92FF92AA
:100900000F931F93CF93DF937C01262F972F8A019C
:1009100080911404882391F0C62FD72F6E01C40E46
:10092000D51ECC15DD0571F06991D701ED91FC91D3
:100930000190F081E02DC7010995F3CF642F822F3C
:100940000E942E04C801DF91CF911F910F91FF905B
:10095000EF90DF90CF900895CF93DF931F92CDB7A4
:10096000DEB76983209114042223D1F0209137044B
:10097000203240F021E030E0FC013383228380E02C
:1009800090E015C080911504E82FF0E0EA5EFB4F7F
:10099000998190838F5F809315048093370405C0FD
:1009A00061E0CE0101960E942E0481E090E00F905C
:1009B000DF91CF910895089580E090E008951F920F
:1009C0000F920FB60F9211242F933F934F935F9383
:1009D0006F937F938F939F93AF93BF93EF93FF9307
:1009E00088E394E00E946703FF91EF91BF91AF917C
:1009F0009F918F917F916F915F914F913F912F9137
:100A00000F900FBE0F901F9018951F920F920FB668
:100A10000F9211242F938F939F93EF93FF93E09165
:100A20004804F09149048081E0914E04F0914F0414
:100A300082FD12C09081809151048F5F8F7320914D
:100A40005204821751F0E0915104F0E0E85CFB4F52
:100A5000958F8093510401C08081FF91EF919F9108
:100A60008F912F910F900FBE0F901F901895CF93DD
:100A7000DF93282F30E0F901EA52FA4F8491F9010F
:100A8000EE53FA4FD491F901E255FA4FC491CC23B9
:100A900091F081110E94FB03EC2FF0E0EE0FFF1F9D
:100AA000EC55FA4FA591B491EC91ED2381E090E0E3
:100AB00021F480E002C080E090E0DF91CF910895C2
:100AC0001F93CF93DF93282F30E0F901EA52FA4FBA
:100AD0008491F901EE53FA4FD491F901E255FA4F9E
:100AE000C491CC23C9F0162F81110E94FB03EC2F77
:100AF000F0E0EE0FFF1FE656FA4FA591B4918FB7C5
:100B0000F894111105C09C91ED2FE095E92302C0E6
:100B1000EC91ED2BEC938FBFDF91CF911F91089556
:100B2000CF93DF9390E0FC01EE53FA4F2491FC0148
:100B3000E255FA4F8491882361F190E0880F991F64
:100B4000FC01E057FA4FC591D491FC01E656FA4FEB
:100B5000A591B491611109C09FB7F894888120953F
:100B600082238883EC912E230BC0623061F49FB7FF
:100B7000F8943881822F809583238883EC912E2BE3
:100B80002C939FBF06C08FB7F894E8812E2B288343
:100B90008FBFDF91CF9108953FB7F89480918E0376
:100BA00090918F03A0919003B091910326B5A89BDB
:100BB00005C02F3F19F00196A11DB11D3FBFBA2FEF
:100BC000A92F982F8827820F911DA11DB11DBC014F
:100BD000CD0142E0660F771F881F991F4A95D1F714
:100BE00008958F929F92AF92BF92CF92DF92EF9231
:100BF000FF926B017C010E94CC054B015C01C1148A
:100C0000D104E104F104F1F00E94CC05DC01CB0138
:100C100088199909AA09BB09883E9340A105B10525
:100C200070F321E0C21AD108E108F10888EE880EBD
:100C300083E0981EA11CB11CC114D104E104F1048D
:100C400019F7DDCFFF90EF90DF90CF90BF90AF907E
:100C50009F908F9008951F920F920FB60F921124BC
:100C60002F933F938F939F93AF93BF9380918A036A
:100C700090918B03A0918C03B0918D0330918903E7
:100C800023E0230F2D3720F40196A11DB11D05C0CF
:100C900026E8230F0296A11DB11D2093890380939E
:100CA0008A0390938B03A0938C03B0938D03809160
:100CB0008E0390918F03A0919003B09191030196C0
:100CC000A11DB11D80938E0390938F03A093900379
:100CD000B0939103BF91AF919F918F913F912F91CD
:100CE0000F900FBE0F901F9018951F920F920FB686
:100CF0000F9211242F933F934F935F936F937F93A2
:100D00008F939F93AF93BF93EF93FF938091B9001D
:100D1000887F803609F49CC068F5883209F45BC08E
:100D200090F4803109F454C038F4882309F4F6C0F3
:100D3000883009F44DC0F6C0883109F44CC08032C7
:100D400009F45DC0EFC0803409F468C048F4803312
:100D500009F455C0883309F0E5C080931104D8C068
:100D6000803509F44FC0883509F45DC0883409F036
:100D7000D9C0D6C0883909F4C7C0A8F4883709F4A7
:100D800067C038F4883609F463C0803709F460C05E
:100D9000C9C0883809F4B8C0803909F45FC0803808
:100DA00009F0C0C05BC0803B09F486C038F4803ACB
:100DB00009F466C0883A09F47FC0B4C0803C09F4E5
:100DC000A7C0883C09F4A4C0883B09F48AC0AAC023
:100DD0008091EE0310C09091100480910F04981739
:100DE00070F5E091100481E08E0F80931004F0E024
:100DF000E151FC4F80818093BB0085EC86C08093DD
:100E000011048EC0E091100481E08E0F80931004D5
:100E10008091BB00F0E0E151FC4F80839091100481
:100E200080910F046EC0E091100481E08E0F8093DA
:100E300010048091BB00F0E0E151FC4F8083809171
:100E4000120481116DC081E08093ED0384EA61C0DA
:100E500083E08093130410928803CFCF809188039E
:100E6000803208F051C0E091880381E08E0F8093BA
:100E700088038091BB00F0E0E859FC4F8083BDCF30
:100E800085EC8093BC00109213048091880380321B
:100E900030F4E0918803F0E0E859FC4F1082609153
:100EA000880370E0E0916603F091670388E693E0C1
:100EB00009951092880336C084E080931304109241
:100EC000650310926403E0916203F0916303099556
:100ED00080916403811105C081E0809364031092C6
:100EE0004203E091650381E08E0F80936503F0E09B
:100EF000EE5BFC4F80818093BB00909165038091F5
:100F00006403981708F479CF85E88093BC000AC081
:100F100085EC8093BC001092130404C0109211045D
:100F20000E942404FF91EF91BF91AF919F918F9107
:100F30007F916F915F914F913F912F910F900FBED5
:100F40000F901F9018955091EB03652F70E0FC01F6
:100F50004191442339F19091EC03292F30E0D901DC
:100F60001196A617B70729F09F3379F451110DC0D8
:100F700006C0911104C088E58093E9030895F90142
:100F8000E755FC4F88E580830895D901A655BC4FED
:100F90004C939F5F903419F09093EC03D9CF10924B
:100FA000EC03D6CF08950F931F93CF93DF93182FA1
:100FB000092F8BE090E00E94DD12D82FC92F0F93EC
:100FC0001F938FEE91E09F938F931F928BE08F93EF
:100FD000CF93DF930E942C148D2F9C2F0E94A30788
:100FE0008DB79EB708960FB6F8949EBF0FBE8DBF03
:100FF0008D2F9C2FDF91CF911F910F910C94721325
:10100000CF93C82F81E0809314048CE3809336043F
:10101000109215041092370460E085ED94E00E9470
:10102000AC046C2F85ED94E00E94AC04CF910C943D
:101030004D0B5F926F927F928F929F92AF92BF9271
:10104000CF92DF92EF92FF920F931F93CF93DF9394
:10105000CDB7DEB769970FB6F894DEBF0FBECDBF30
:1010600081E20E94000880E00E9400088FE70E9451
:10107000000882E20E94000880E00E94000887E0E9
:101080000E940008E12CF12C98E1892E8E010F5F5F
:101090001F4F25E1722E3CE0632E600E992493943D
:1010A000F801882D11928A95E9F7C12CD12C20E006
:1010B0008CE3582E8091BE0190E001968E0D9F1D0D
:1010C00087709927789EF001799EF00D1124EC0D20
:1010D000FD1DEA5EFE4F3081E5E03E02A0011124D5
:1010E00080E090E03F7D622F680F332339F0FC01F0
:1010F000E40FF51FE057FF4FE49101C0E0E0D80195
:10110000A60FB11DEC9301968530910561F785E03E
:10111000820F2A5FF801E80FF11D10822C30C9F40C
:1011200090921404509236041092150410923704D1
:1011300080E490E00E94480B5801F50161915F0145
:1011400085ED94E00E94AC046A10F7CF0E944D0B2D
:1011500020E0FFEFCF1ADF0A85E1C816D10409F0BD
:10116000A9CF909214048CE3809336041092150456
:101170001092370480E490E0298F0E94480B6801A8
:10118000298D8C2D801B821748F4F60161916F0127
:1011900085ED94E0298F0E94AC04F2CF80E090E0CE
:1011A0000E94480B80E090E00E94480B0E944D0B8B
:1011B000FFEFEF1AFF0A88E0E816F10409F070CF9C
:1011C00069960FB6F894DEBF0FBECDBFDF91CF9109
:1011D0001F910F91FF90EF90DF90CF90BF90AF9055
:1011E0009F908F907F906F905F9008950F931F93C3
:1011F000CF93DF93CDB7DEB78F8198850E94DD1244
:101200008C019E01255F3F4F49855A856F81788506
:101210000E9498140115110569F0F8010190002051
:10122000E9F73197AF01401B510BB80188E394E017
:101230000E941B0B42E050E062EF71E088E394E013
:101240000E941B0BC8010E947213DF91CF911F9166
:101250000F91089585EF91E00E94A30780E48093A9
:101260007C0080917A00806480937A0080917A007B
:1012700086FDFCCF809178002091790090E0922B40
:1012800025E0289FB001299F700D1124072E000C26
:10129000880B990B0E944B1220E030EC4FE754E48E
:1012A0000E94A1110E941312CB010E94D30787EF65
:1012B00091E00C94A3070F931F93CF93DF93C0ED9E
:1012C000C80F61E08CE00E94600568EC70E080E08F
:1012D00090E00E94F10560E08CE00E9460056CE205
:1012E00071E080E090E00E94F10500E010E00C2E3B
:1012F000000CDD0B0C171D07BCF461E08BE00E94B5
:10130000600564E670E080E090E00E94F10560E036
:101310008BE00E9460056CE271E080E090E00E944A
:10132000F1050F5F1F4FE6CF68EE73E080E090E0BD
:10133000DF91CF911F910F910C94F105CF92DF9225
:10134000EF92FF92C0903E03D0903F03E0904003A5
:10135000F0904103C114D104E104F10459F40E9456
:10136000CC0560933E0370933F03809340039093BA
:10137000410384C00E94CC056C197D09653F81E062
:1013800078070CF473C08091980390919903A09111
:101390009A03B0919B03892B8A2B8B2BD1F48091DC
:1013A0009D0390919E03A0919F03B091A003892B70
:1013B0008A2B8B2B71F48091A1039091A203A091B1
:1013C000A303B091A403892B8A2B8B2B11F480E209
:1013D00001C083E52091C1013091C20137FF02C0F5
:1013E00090E201C092E52091EA03211102C020E2BF
:1013F00001C023E73091A903311102C030E201C0DE
:1014000032E71F923F931F922F931F929F931F9239
:101410008F937F936F938AEF91E09F938F9380E0F8
:1014200091E09F938F930E945C142091BE0130E065
:101430002F5F3F4F277033272093BE0145E1429F26
:10144000C001439F900D112445E150E060E071E040
:101450008A5E9E4F0E941D140E9419088DB79EB788
:101460000E960FB6F8949EBF0FBE8DBF10923E032E
:1014700010923F031092400310924103FF90EF90AF
:10148000DF90CF9008951092800060E089E00E9484
:1014900060050E94CC056093A5037093A60380931A
:1014A000A7039093A80308958F929F92AF92BF9243
:1014B000CF92DF92EF92FF92CF93DF931F92CDB73F
:1014C000DEB76B017C018091980390919903A09104
:1014D0009A03B0919B03892B8A2B8B2B09F090C028
:1014E00080919D0390919E03A0919F03B091A003D2
:1014F000892B8A2B8B2B09F083C08091A1039091BB
:10150000A203A091A303B091A403892B8A2B8B2B58
:1015100009F076C020E130E080E090E0DC01880F47
:10152000991FAA1FBB1F4601570151E0852299242C
:10153000AA24BB2488299929AA29BB29F694E794CF
:10154000D794C7942150310951F76C017D0160E2B5
:1015500070E020E03C2D31702327F694E794D79477
:10156000C79461507109B1F72111A1608093940370
:1015700090939503A0939603B093970381E1809392
:101580009C0361E087E049830E946005498150E047
:10159000FA013197E730F105D0F4EC5CFF4F61E0E0
:1015A0000C94D7128BE011C08BE00E94600561E0C3
:1015B0008DE00BC08BE005C08BE00E94600561E010
:1015C0008DE00E94600561E08CE00E94600580E48F
:1015D000809380000E94CC056093A5037093A603BE
:1015E0008093A7039093A80380E699E0A0E0B0E081
:1015F00080939D0390939E03A0939F03B093A003B9
:101600000F90DF91CF91FF90EF90DF90CF90BF9040
:10161000AF909F908F9008954091BF01742F729565
:10162000770F707E60E063607160072E000C880B9E
:10163000990B0C94540ACF92DF92EF92FF920F9382
:101640001F93CF93DF936C017A018B01C0E0D0E050
:10165000CE15DF0589F0D8016D918D01D601ED9190
:10166000FC910190F081E02DC6010995892B11F4C0
:101670007E0102C02196ECCFC701DF91CF911F916F
:101680000F91FF90EF90DF90CF9008950E940A1481
:10169000682F85ED94E00C94AC0420913704909170
:1016A0003604213208F04AC0809113048111FCCF26
:1016B00032E03093130431E0309312043FEF309363
:1016C00011041092100420930F04A6E1B4E04FEE31
:1016D00053E0FA013E2F341B321718F43D91319339
:1016E000F9CF1092EE032091EE03990F922B909375
:1016F000EE039091ED03913061F41092ED0390911F
:10170000EE039093BB009091BC0093FDF8CF95EC55
:1017100001C095EE9093BC00909113049230E1F3D8
:10172000909111049F3F79F080911104803241F033
:1017300080911104803331F084E005C081E003C062
:1017400082E001C083E010921504109237041092D9
:1017500014040895E8E3F4E01382128288EE93E023
:10176000A0E0B0E084839583A683B7832FEC31E0BB
:101770003183208325EC30E03587248724EC30E06A
:101780003787268720EC30E0318B208B21EC30E04E
:10179000338B228B22EC30E0358B248B26EC30E02F
:1017A000378B268B118E128E138E148EE5EDF4E09E
:1017B0001382128284839583A683B78381EE91E09E
:1017C000918380830895CF93DF9300D000D01F9240
:1017D000CDB7DEB7789484B5826084BD84B581606E
:1017E00084BD85B5826085BD85B5816085BD8091EC
:1017F0006E00816080936E00109281008091810064
:10180000826080938100809181008160809381005B
:10181000809180008160809380008091B10084601D
:101820008093B1008091B00081608093B00080917E
:101830007A00846080937A0080917A00826080933D
:101840007A0080917A00816080937A0080917A009A
:10185000806880937A001092C10061E089E00E9464
:10186000900560E088E00E94900561E08AE00E94B7
:10187000900561E087E00E94900560E083E00E94AF
:10188000900560E082E00E94900560E08EE00E949A
:10189000900561E08BE00E94900561E08DE00E9480
:1018A000900561E08CE00E94900561E084E00E9478
:1018B000900561E085E00E94900561E086E00E946D
:1018C000900561E08AE00E94600580E480938000DA
:1018D00089E08093810010926F0012E016BB86E0D1
:1018E00091E090938900809388000E94430AE091E0
:1018F0004804F09149041083E0914404F0914504B8
:101900001082E0914604F091470480E180831092B8
:101910005004E0914C04F0914D0486E08083E09106
:101920004A04F0914B04808180618083E0914A04F5
:10193000F0914B04808188608083E0914A04F091AB
:101940004B04808180688083E0914A04F0914B04CD
:1019500080818F7D80831092930310929203109266
:101960001504109237041092130481E0809312043E
:101970001092ED0361E082E10E94600561E083E185
:101980000E9460058091B9008E7F8093B90080919C
:10199000B9008D7F8093B90088E48093B80085E416
:1019A0008093BC008EEA0E94000885ED0E9400082A
:1019B00080E80E94000888EA0E9400088FE30E94E5
:1019C000000883ED0E94000880E00E94000880E487
:1019D0000E9400088DE80E94000884E10E9400082F
:1019E00080E20E94000880E00E94000881EA0E94D4
:1019F000000888EC0E9400088AED0E94000882E13D
:101A00000E94000881E80E9400088FEC0E940008F4
:101A100089ED0E94000881EF0E9400088BED0E9472
:101A2000000880E40E94000884EA0E94000886EA18
:101A30000E9400088EE20E9400088FEA0E940008BF
:101A40000E94190881E30E945B0989E30E945B09F7
:101A500080E30E945B0986E30E945B0908E5402E53
:101A600002E0502E612C712C9E012E5F3F4F3D8372
:101A70002C831E0133E0230E311C0E949E098091AD
:101A8000EF049091F004019741F40E942A0968EE56
:101A900073E080E090E00E94F1050E94CC05009187
:101AA000E2041091E3042091E4043091E50408512C
:101AB0001C4F2F4F3F4F061717072807390770F5A0
:101AC00083E00E9437052091E104892B89F02130C1
:101AD000D9F08091F104882329F085E092E00E94FA
:101AE000A30702C00E940C0B81E08093E1040CC0AC
:101AF000222351F08091F104882321F088E092E0C4
:101B00000E94A3071092E1040E94CC056093E204B6
:101B10007093E3048093E4049093E50482E00E94D0
:101B20003705892B01F1E091BF01F091C001319798
:101B3000E730F10520F5E55CFF4F61E00C94D7122A
:101B400084E01BC084E00E94600561E085E015C070
:101B500084E005C084E00E94600561E085E00E94A9
:101B6000600561E009C060E084E00E94600560E01B
:101B700085E00E94600560E086E00E9460050E94AA
:101B8000CC050091A5031091A6032091A7033091E5
:101B9000A803DC01CB01801B910BA20BB30BC090FF
:101BA000A103D090A203E090A303F090A403C1147A
:101BB000D104E104F10491F08C159D05AE05BF053B
:101BC00068F060E087E00E9460051092A103109227
:101BD000A2031092A3031092A4039BC0C0909D0384
:101BE000D0909E03E0909F03F090A003C114D10415
:101BF000E104F104A9F18C159D05AE05BF0580F146
:101C00000E94430A10929D0310929E0310929F031C
:101C10001092A00380919C03882349F0409298037E
:101C20005092990360929A0370929B0372C060E095
:101C30008BE00E94600560E08DE00E94600560E03E
:101C40008CE00E94600580E49DE0A3E0B0E080931A
:101C5000A1039093A203A093A303B093A40359C03C
:101C6000C0909803D0909903E0909A03F0909B0362
:101C7000C114D104E104F10409F44BC08C159D0595
:101C8000AE05BF0508F445C080E4809380000E9443
:101C9000CC056093A5037093A6038093A70390934C
:101CA000A803109298031092990310929A0310922D
:101CB0009B038091940390919503A0919603B0911A
:101CC000970380FF0DC020EB34E040E050E020930C
:101CD0009D0330939E0340939F035093A00308C03D
:101CE00040929D0350929E0360929F037092A003C6
:101CF000B695A795979587958093940390939503B0
:101D0000A0939603B093970380919C038150809396
:101D10009C0388E00E94370521E0892B09F020E030
:101D20008091EE04811111C0222309F44EC00E945B
:101D3000CC056093EA047093EB048093EC049093D9
:101D4000ED0481E08093EE044BC1211149C10E9452
:101D5000CC056093E6047093E7048093E8049093C5
:101D6000E904C090EA04D090EB04E090EC04F09019
:101D7000ED04DC01CB018C199D09AE09BF096C0192
:101D80007D0130E6C31A39E0D30AE108F10848ECD6
:101D9000C416D104E104F1040CF072C259E3C51673
:101DA0005FEFD506E506F5060CF46AC2109233051E
:101DB0001092340510923505109236051092C2012A
:101DC0001092C1011092EE040BC1C090E604D090B5
:101DD000E704E090E804F090E904C114D104E104C0
:101DE000F10409F4FDC00E94CC05DC01CB018C1983
:101DF0009D09AE09BF09893E9340A105B10508F4CC
:101E0000EFC01092E6041092E7041092E8041092DA
:101E1000E9042091C1013091C201121613060CF0A1
:101E2000DFC08091330590913405A0913505B091C4
:101E300036056C017D0140E250E060E07C2D717060
:101E40006727F694E794D794C79441505109B1F7A6
:101E5000662319F08BE092E0B3C0B695A7959795ED
:101E600087954C015D01882450EE9522AA24BB245D
:101E70006DE0B694A794979487946A95D1F7E82F6C
:101E80006C017D01CC244FE1D422EE24FF24811487
:101E90009104A104B10409F069C077276F2D5E2D6C
:101EA0004D2D433029F150F44130E9F0423009F032
:101EB00048C01F928F93A6E9B2E035C0463129F0A1
:101EC000473161F04930E9F51CC01F928F93AEE0B5
:101ED000B2E0BF93AF931F9284E129C01F928F930A
:101EE000A1E2B2E020C01F928F93A6E3B2E01BC034
:101EF0001F928F93ABE4B2E0BF93AF931F9285E143
:101F000016C0843051F0863029F0811109C08FE568
:101F100092E056C08FE692E053C083E792E050C053
:101F200084E892E04DC0BF93AF931F9286E18F93F8
:101F30000E94F6080F900F900F900F900F900F9047
:101F400041C03F932F93BF93AF939F938F93ABEA7F
:101F5000B2E0BF93AF931F928DE18F930E94F6087A
:101F60000FB6F894DEBF0FBECDBF2CC0CD2CDE2C3B
:101F7000EF2CFF24EE2351F0E53610F4182F07C0A4
:101F800085EC92E00E94A30710E001C01FEF87EDEF
:101F900092E00E94A307C4010E94D30789ED92E05A
:101FA0000E94A307C6010E94D30789ED92E00E9418
:101FB000A307812F110F990B0E94D30783EF91E0A4
:101FC0000E94A3078FEF9FEF9093C2018093C101FE
:101FD0001092330510923405109235051092360593
:101FE00088E394E00E942F038F3FAFEF9A0719F424
:101FF0001092A9031CC121E02093A903109132057E
:10200000E12FF0E0EE50FB4F8083210F209332054B
:10201000203438F0109232050A9709F008C11FEFFA
:1020200035C00A9709F003C1112309F4FEC011302D
:1020300051F58091F204863619F40E940C0BF5C01C
:10204000823619F40E942A09F0C0833759F460E5FA
:1020500073EC80E090E00E94F10560E08AE00E946D
:102060006005E3C0833629F41093F1048BED92E010
:1020700007C0843609F05CC01092F1048EED92E046
:102080000E94A307D2C0153008F452C044E050E0CB
:1020900062EF74E081EE92E00E940F14892B71F5DB
:1020A00021E030E02C0F3D1F3F932F933D813F9364
:1020B0004C814F933F922F9286EE92E09F938F93A5
:1020C00082EF94E09F938F930E947F144B81642F43
:1020D00070E0762F66277295770F707E8A81782B55
:1020E0008981682B072E000C880B990B0E94540ADB
:1020F0000FB6F894DEBF0FBECDBF97C01D3058F0AD
:102100004CE050E062EF74E08BEF92E00E940F141D
:10211000892B19F497CF193058F048E050E062EF5E
:1021200074E088E093E00E940F14892B09F48FCFAC
:1021300044E050E062EF74E081E193E00E940F140C
:10214000892B39F481E090E09093F0048093EF04C0
:102150006CC0143008F469C043E050E062EF74E0F2
:1021600086E193E00E940F14892B19F481E090E03E
:1021700058C0163068F045E050E062EF74E08AE144
:1021800093E00E940F14892B31F482E090E049C063
:10219000153008F44AC044E050E062EF74E080E299
:1021A00093E00E940F14892B19F483E090E039C06A
:1021B0001730D0F046E050E062EF74E085E293E043
:1021C0000E940F14892B19F484E090E02AC046E0A5
:1021D00050E062EF74E08CE293E00E940F14892BD0
:1021E00029F485E090E01DC01530F8F044E050E09F
:1021F00062EF74E083E393E00E940F14892B19F4DB
:1022000086E090E00EC0163080F045E050E062EFCE
:1022100074E088E393E00E940F14892B31F487E087
:1022200090E09093C0018093BF0110923205A0917D
:10223000EB038091EC038A1303C01092EA031BC0E6
:10224000E0913804F0913904B0E0A655BC4F0190FC
:10225000F081E02D6C9188E394E009958091EB0387
:102260008F5F803419F08093EB0302C01092EB0370
:1022700081E08093EA030E949E090E94F103FDCB56
:102280006C017D0120EBC21A24E0D20AE108F108BA
:1022900038ECC316D104E104F104ECF429E3C216CE
:1022A0002FEFD206E206F206B4F02091C101309180
:1022B000C20137FD87CD8091330590913405A091FF
:1022C0003505B0913605880F991FAA1FBB1F0196CF
:1022D000A11DB11D20C088559240A109B109883CBB
:1022E0009105A105B10534F589339F4FAF4FBF4F1D
:1022F0000CF12091C1013091C20137FD63CD809175
:10230000330590913405A0913505B0913605880FBD
:10231000991FAA1FBB1F8093330590933405A09388
:102320003505B09336052F5F3F4F3093C2012093A0
:10233000C10148CD4FEF5FEF5093C2014093C101FF
:1023400041CD0E94B5110C949D120E94961258F036
:102350000E948F1240F029F45F3F29F00C948612FE
:1023600051110C94D1120C948C120E94AE1268F38D
:102370009923B1F3552391F3951B550BBB27AA273E
:1023800062177307840738F09F5F5F4F220F331F78
:10239000441FAA1FA9F335D00E2E3AF0E0E832D040
:1023A00091505040E695001CCAF72BD0FE2F29D043
:1023B000660F771F881FBB1F261737074807AB0715
:1023C000B0E809F0BB0B802DBF01FF2793585F4F8A
:1023D0003AF09E3F510578F00C9486120C94D1127D
:1023E0005F3FE4F3983ED4F3869577956795B7956C
:1023F000F7959F5FC9F7880F911D9695879597F977
:102400000895E1E0660F771F881FBB1F62177307EF
:102410008407BA0720F0621B730B840BBA0BEE1F04
:1024200088F7E09508950E941A126894B1110C94EF
:10243000D11208950E94B61288F09F5798F0B92FD4
:102440009927B751B0F0E1F0660F771F881F991FE9
:102450001AF0BA95C9F714C0B13091F00E94D012A9
:10246000B1E008950C94D012672F782F8827B85FB9
:1024700039F0B93FCCF3869577956795B395D9F741
:102480003EF490958095709561957F4F8F4F9F4F4B
:102490000895E89409C097FB3EF490958095709557
:1024A00061957F4F8F4F9F4F9923A9F0F92F96E9A0
:1024B000BB279395F695879577956795B795F11115
:1024C000F8CFFAF4BB0F11F460FF1BC06F5F7F4FB2
:1024D0008F4F9F4F16C0882311F096E911C07723C4
:1024E00021F09EE8872F762F05C0662371F096E8CD
:1024F000862F70E060E02AF09A95660F771F881F9C
:10250000DAF7880F9695879597F9089597F99F6759
:1025100080E870E060E008959FEF80EC089500246B
:102520000A941616170618060906089500240A9438
:1025300012161306140605060895092E0394000CBE
:1025400011F4882352F0BB0F40F4BF2B11F460FF4D
:1025500004C06F5F7F4F8F4F9F4F089557FD905876
:10256000440F551F59F05F3F71F04795880F97FB57
:10257000991F61F09F3F79F0879508951216130611
:102580001406551FF2CF4695F1DF08C01616170640
:102590001806991FF1CF8695710561050894089575
:1025A000E894BB2766277727CB0197F90895EE0FAC
:1025B000FF1F0590F491E02D0994CF93DF938230B3
:1025C000910510F482E090E0E0913905F0913A0530
:1025D00020E030E0C0E0D0E0309711F1408151813F
:1025E00048175907C0F04817590761F48281938151
:1025F000209719F09B838A832BC090933A05809390
:10260000390526C02115310519F04217530718F472
:102610009A01BE01DF01EF010280F381E02DDCCFE2
:102620002115310509F1281B390B2430310590F4AF
:1026300012968D919C9113976115710521F0FB0104
:102640009383828304C090933A0580933905FD01FA
:10265000329644C0FD01E20FF31F81939193225003
:1026600031092D933C933AC02091370530913805BC
:10267000232B41F42091C5013091C60130933805D8
:10268000209337052091C3013091C40121153105F4
:1026900041F42DB73EB74091C7015091C801241BAA
:1026A000350BE0913705F0913805E217F307A0F4F8
:1026B0002E1B3F0B2817390778F0AC014E5F5F4F98
:1026C0002417350748F04E0F5F1F5093380540938D
:1026D00037058193919302C0E0E0F0E0CF01DF91F4
:1026E000CF9108950F931F93CF93DF93009709F431
:1026F0008CC0FC013297138212820091390510912F
:102700003A050115110581F420813181820F931F53
:1027100020913705309138052817390779F5F0935E
:102720003805E093370571C0D80140E050E0AE179E
:10273000BF0750F412962D913C911397AD012115CE
:10274000310509F1D901F3CF9D01DA0133832283E9
:1027500060817181860F971F8217930769F4EC01DE
:1027600028813981260F371F2E5F3F4F3183208309
:102770008A819B8193838283452B29F4F0933A05C8
:10278000E093390542C01396FC93EE931297ED0146
:10279000499159919E01240F351FE217F30771F4F7
:1027A00080819181840F951F029611969C938E9340
:1027B0008281938113969C938E931297E0E0F0E0D0
:1027C000D80112968D919C911397009719F0F801FA
:1027D0008C01F6CF8D919C9198012E5F3F4F820F17
:1027E000931F20913705309138052817390769F470
:1027F000309729F410923A051092390502C01382DD
:1028000012821093380500933705DF91CF911F9105
:102810000F91089581E090E0F8940C94951AFB01D3
:10282000DC014150504030F08D910190801919F435
:102830000020B9F7881B990B0895FB01DC0141507A
:10284000504048F001900D920020C9F701C01D9240
:1028500041505040E0F70895AEE0B0E0E2E3F4E12B
:102860000C946C1A0D891E898F89988D26E02C8313
:102870001A83098397FF02C080E090E801979E8346
:102880008D83AE01455E5F4F698D7A8DCE010196D5
:102890000E94C4144D815E8157FD0AC02F81388586
:1028A000421753070CF49A01F801E20FF31F10824C
:1028B0002E96E4E00C94881AAEE0B0E0E2E6F4E193
:1028C0000C946C1A0D891E8986E08C831A83098307
:1028D0008FEF9FE79E838D83AE01475E5F4F6F89C9
:1028E000788DCE0101960E94C4142F813885F8019D
:1028F000E20FF31F10822E96E4E00C94881AAEE0EB
:10290000B0E0E5E8F4E10C946E1A85E08C838B89E5
:102910009C899A838983AE01495E5F4F6D897E8968
:10292000CE0101960E9416182E96E2E00C948A1AA7
:10293000AEE0B0E0EEE9F4E10C946C1A8C01CA014F
:1029400046E04C831A83098377FF02C060E070E899
:10295000FB013197FE83ED83A901BC01CE010196F5
:102960000E94C4144D815E8157FD0AC02F813885B5
:10297000421753070CF49A01F801E20FF31F10827B
:102980002E96E4E00C94881AACE0B0E0EAECF4E1B6
:102990000C945E1A7C016B018A01FC01178216827D
:1029A000838181FFBDC1CE0101964C01F701938166
:1029B000F60193FD859193FF81916F01882309F4BE
:1029C000ABC1853239F493FD859193FF81916F01FD
:1029D000853229F4B70190E00E94AC19E7CF512C61
:1029E000312C20E02032A0F48B3269F030F48032B8
:1029F00059F0833269F420612CC08D3239F0803374
:102A000039F4216026C02260246023C0286021C0E0
:102A100027FD27C030ED380F3A3078F426FF06C086
:102A2000FAE05F9E300D1124532E13C08AE0389EC9
:102A3000300D1124332E20620CC08E3221F426FD7D
:102A40006BC1206406C08C3611F4206802C0883641
:102A500041F4F60193FD859193FF81916F018111FE
:102A6000C1CF982F9F7D9554933028F40C5F1F4F52
:102A7000FFE3F9830DC0833631F0833771F083357E
:102A800009F05BC022C0F801808189830E5F1F4F6F
:102A900044244394512C540115C03801F2E06F0EC8
:102AA000711CF801A080B18026FF03C0652D70E085
:102AB00002C06FEF7FEFC5012C870E9463192C01C4
:102AC00083012C852F77222E17C03801F2E06F0E7C
:102AD000711CF801A080B18026FF03C0652D70E055
:102AE00002C06FEF7FEFC5012C870E9458192C019F
:102AF0002C852068222E830123FC1BC0832D90E0AF
:102B000048165906B0F4B70180E290E00E94AC1973
:102B10003A94F4CFF50127FC859127FE81915F015E
:102B2000B70190E00E94AC1931103A94F1E04F1ACD
:102B300051084114510471F7E5C0843611F089360B
:102B400039F5F80127FF07C0608171818281938187
:102B50000C5F1F4F08C060817181072E000C880B2D
:102B6000990B0E5F1F4F2F76722E97FF09C090951D
:102B70008095709561957F4F8F4F9F4F2068722E83
:102B80002AE030E0A4010E94FD19A82EA81844C034
:102B9000853729F42F7EB22E2AE030E025C0F22FAF
:102BA000F97FBF2E8F36C1F018F4883579F0B4C0A4
:102BB000803719F0883721F0AFC02F2F2061B22E57
:102BC000B4FE0DC08B2D8460B82E09C024FF0AC04E
:102BD0009F2F9660B92E06C028E030E005C020E1A6
:102BE00030E002C020E132E0F801B7FE07C06081AA
:102BF0007181828193810C5F1F4F06C0608171815A
:102C000080E090E00E5F1F4FA4010E94FD19A82EE6
:102C1000A818FB2DFF777F2E76FE0BC0372D3E7F49
:102C2000A51450F474FE0AC072FC08C0372D3E7E15
:102C300005C0BA2C372D03C0BA2C01C0B52C34FF07
:102C40000DC0FE01EA0DF11D8081803311F4397E43
:102C500009C032FF06C0B394B39404C0832F8678B2
:102C600009F0B39433FD13C030FF06C05A2CB314DF
:102C700018F4530C5B18B32CB31468F4B70180E25A
:102C800090E03C870E94AC19B3943C85F5CFB31417
:102C900010F43B1801C0312C34FF12C0B70180E39F
:102CA00090E03C870E94AC193C8532FF17C031FD93
:102CB00003C088E790E002C088E590E0B7010CC04F
:102CC000832F867859F031FF02C08BE201C080E289
:102CD00037FD8DE2B70190E00E94AC19A51438F4DD
:102CE000B70180E390E00E94AC195A94F7CFAA9400
:102CF000F401EA0DF11D8081B70190E00E94AC194A
:102D0000A110F5CF332009F451CEB70180E290E055
:102D10000E94AC193A94F6CFF7018681978102C0E0
:102D20008FEF9FEF2C96E2E10C947A1A20FD09C0F8
:102D3000FC0123FD05C022FF02C07383628351831F
:102D40004083089544FD10C046FD10C0DB01FC0126
:102D5000AA0FBB1FEE1FFF1F1094D1F76A0F7B1F36
:102D60008E1F9F1F31E003C033E001C034E0660FC7
:102D7000771F881F991F3150D1F7620F711D811D78
:102D8000911D08950F931F93CF93DF938C01C8017A
:102D90000E946E19EC0197FD08C00E944419892B0E
:102DA000B1F7B801CE010E94E419CE01DF91CF91B5
:102DB0001F910F910895A1E0B0E0E1EEF6E10C94CF
:102DC000641A8C01C62E7A0129830E946E19AC0107
:102DD000552729814B32510521F04D32510569F4B7
:102DE0002068CA94C11002C080E076C0C80129835F
:102DF0000E946E19298197FDF7CF322F3D7FD32E88
:102E0000322F307349F5803339F5BB24BA94BC0CAA
:102E100009F44EC0C80129830E946E19298197FDCB
:102E200047C0382F3F7D383569F48D2D8264D82E08
:102E3000CA94CA94CC20E1F1C8010E946E1997FF90
:102E40000BC036C026FF04C02D2D2260D22E03C039
:102E50003D2D3261D32ECB2C812C912C540120EDB1
:102E6000280F283080F0D4FE04C0B8010E94E41975
:102E70001CC02A3040F0D6FEF8CF2F7D3FEE320F37
:102E8000363098F727504D2DC501B4010E94A21687
:102E90004B015C018D2D8260D82ECA94CC2059F054
:102EA000C8010E946E1997FFDACFD1FC04C09CCFF5
:102EB000812C912C5401D7FE08C0B094A09490941A
:102EC0008094811C911CA11CB11C2D2DB501A40165
:102ED000C7010E94961681E02196ECE00C94801ABE
:102EE000A1E2B0E0E6E7F7E10C94621A5C017A0136
:102EF000CE0101966C0180E2F60111928A95E9F704
:102F0000F501838040E050E0912C712C70E0A1E04D
:102F1000B0E0F90183FC859183FE81918F01982FA8
:102F20009F01811103C080E090E07CC08E3519F4D0
:102F30004115510549F1E72FF0E0E417F5073CF49E
:102F40008D3559F18D3219F4772001F103C07110DC
:102F500001C0982E892F8695869586958601080F43
:102F6000111D892F87703D0101C0660C8A95EAF713
:102F7000F801808186298083991559F0991510F4FC
:102F80009F5FE8CF9150E6CF71E004C0772473943F
:102F900001C0712C4F5F5F4FBCCF772019F08E813D
:102FA00080628E83711103C09924939416C0F60138
:102FB0009E012F5D3F4F808180958193E217F3073B
:102FC000D1F7F2CFE114F10429F0F7018083C701B2
:102FD00001967C016150912CF9F0C50169A30E9412
:102FE0006E1969A197FD16C0282F2695269526955E
:102FF000F601E20FF11D208130E0AC01477055274A
:1030000002C0359527954A95E2F720FDDBCFB50143
:103010000E94E419911087CFE114F10411F0F70137
:103020001082C801A196EEE00C947E1A4F925F9236
:103030007F928F929F92AF92BF92CF92DF92EF9248
:10304000FF920F931F93CF93DF931F92CDB7DEB7FD
:103050006C012B015A01FC0117821682712CF601BA
:10306000F380F201F3FC8591F3FE8191382F2F015B
:10307000882309F4F3C090E039830E944419398110
:10308000892B21F0C6010E94C216E9CF353241F4E6
:10309000F201F3FC3591F3FE31912F01353269F4E1
:1030A000C60139830E946E19398197FDD5C0381742
:1030B000B1F2B6010E94E419D1C03A3239F4F3FCFE
:1030C0003591F3FE31912F0151E001C050E04201F2
:1030D00010E020ED230F2A3090F45260612F70E051
:1030E00080E090E040E259830E94A216162FF4017E
:1030F000F3FC3591F3FE31914F015981EACF052F51
:10310000232F240151FF03C0111102C0A7C01FEFDC
:10311000383619F03C3659F011C0F401F3FC259112
:10312000F3FE21912F01283649F4052F0860046031
:10313000F201F3FC2591F3FE21912F01222309F4E2
:103140008DC0622F70E084E890E029830E944D19C1
:103150002981892B09F482C000FD07C0F501E080B8
:10316000F180C50102965C0102C0E12CF12C2E36E3
:1031700051F4F6014681578160E070E0202FC701CD
:103180000E9496166CCF233691F401FF11E0C60120
:103190000E946E1997FD60C0E114F10429F0F70157
:1031A0008083C70101967C01115089F751C02B35EE
:1031B00059F49201A701612FC6010E9470172C01DA
:1031C000892B09F045C03FC0C60129830E94C21661
:1031D000298197FD41C02F3659F128F4243631F169
:1031E000293649F127C0233769F02537F9F022C085
:1031F000E114F10429F0F7018082C70101967C01F6
:10320000115071F0C6010E946E194C0197FD08C063
:103210000E944419892B61F3B601C4010E94E4198C
:10322000E114F104A9F0F701108212C0006203C09A
:10323000006101C00064202FA701612FC6010E9418
:10324000DB16811105C0F6018381807329F406C065
:1032500000FD05CF739403CF772019F0872D90E000
:1032600002C08FEF9FEF0F90DF91CF911F910F91D1
:10327000FF90EF90DF90CF90BF90AF909F908F9096
:103280007F905F904F90089591110C945B1A80325B
:1032900019F089508550C8F70895FC01059006166D
:1032A00021F00020D9F7C00108953197CF0108958A
:1032B000FC010590615070400110D8F78095909501
:1032C0008E0F9F1F0895FC01615070400190011006
:1032D000D8F7809590958E0F9F1F0895CF93DF9319
:1032E000EC012B8120FF33C026FF0AC02F7B2B83EC
:1032F0008E819F8101969F838E838A8190E029C071
:1033000022FF0FC0E881F9818081082E000C990B03
:10331000009719F420622B831AC03196F983E88351
:103320000EC0EA85FB85099597FF09C02B810196A0
:1033300011F080E201C080E1822B8B8308C02E81D6
:103340003F812F5F3F4F3F832E83992702C08FEF2E
:103350009FEFDF91CF9108950F931F93CF93DF934A
:10336000FB01238121FD03C08FEF9FEF28C022FFC7
:1033700016C046815781248135814217530744F492
:10338000A081B1819D012F5F3F4F318320838C93BA
:10339000268137812F5F3F4F3783268310C0EB0193
:1033A000092F182F0084F185E02D0995892BE1F66E
:1033B0008E819F8101969F838E83812F902FDF9135
:1033C000CF911F910F910895FB01238120FF12C01F
:1033D00026FD10C08F3F3FEF930761F082832F7D62
:1033E0002064238326813781215031093783268346
:1033F000992708958FEF9FEF0895FA01AA272830A3
:1034000051F1203181F1E8946F936E7F6E5F7F4FB1
:103410008F4F9F4FAF4FB1E03ED0B4E03CD0670F2D
:10342000781F891F9A1FA11D680F791F8A1F911D80
:10343000A11D6A0F711D811D911DA11D20D009F4D0
:1034400068943F912AE0269F11243019305D319312
:10345000DEF6CF010895462F4770405D4193B3E0FB
:103460000FD0C9F7F6CF462F4F70405D4A3318F0A2
:10347000495D31FD4052419302D0A9F7EACFB4E053
:10348000A6959795879577956795BA95C9F700970B
:103490006105710508959B01AC010A2E06945795AC
:1034A000479537952795BA95C9F7620F731F841F03
:1034B000951FA01D08959927882708952F923F9260
:1034C0004F925F926F927F928F929F92AF92BF9234
:1034D000CF92DF92EF92FF920F931F93CF93DF93E0
:1034E000CDB7DEB7CA1BDB0B0FB6F894DEBF0FBE3D
:1034F000CDBF09942A88398848885F846E847D848A
:103500008C849B84AA84B984C884DF80EE80FD808B
:103510000C811B81AA81B981CE0FD11D0FB6F89401
:0E352000DEBF0FBECDBFED010895F894FFCFC2
:10352E00202020202020202020202020202020208D
:10353E00202020202000202020202020202020209D
:10354E002F5C202020202020202000202020202042
:10355E00202020202F20205C202020202020200032
:10356E0020202020202020202F202020205C202002
:10357E002020202000202020202020202F2020204E
:10358E002020205C20202020200020202020202011
:10359E002F20202020202020205C202020200020F2
:1035AE00202020202F202020202020202020205CC2
:1035BE0020202000202020202F2046697265537481
:1035CE006F726D20205C2020002020202F5F5F5F17
:1035DE005F5F5F5F5F5F5F5F5F5F5F5C200007073E
:1035EE0000FFFF00003B058000600900000000881E
:1035FE00031B0B2003CF0351032F034303000000D3
:10360E0000AC047C04DC04560474046504570425E1
:10361E0064000D0A0042002F6E00256425632563A9
:10362E002563256300540A00740A00430A00536898
:10363E006F74285365745465616D28257529290AA0
:10364E000053686F7428536574506C6179657228E5
:10365E00257529290A0053686F74284164644865EA
:10366E00616C746828257529290A0053686F7428BF
:10367E00416464436C69707328257529290A0053C7
:10368E00686F74284B696C6C65642829290A00469A
:10369E00410A0053686F74285265537061776E2823
:1036AE0029290A0053686F7428556E6B6E6F776EFA
:1036BE0047474D290A0053686F7428416464526F5E
:1036CE00756E647328257529290A0053686F74284E
:1036DE00556E6B6E6F776E534D28256C752C2025AD
:1036EE006429290A0053686F7428556E6B6E6F77C4
:1036FE006E446D67290A0048002C00630A00640AB4
:10370E000046697265004669726528256868642CF2
:10371E00256868642C2568686429004261747465A4
:10372E007279436865636B0053687574646F776E66
:10373E0000746573740072656400677265656E006F
:10374E00626C75650079656C6C6F77007075727060
:0E375E006C65006379616E00776869746500C0
:107E0000112484B714BE81FFF0D085E080938100F7
:107E100082E08093C00088E18093C10086E0809377
:107E2000C20080E18093C4008EE0C9D0259A86E02C
:107E300020E33CEF91E0309385002093840096BBD3
:107E4000B09BFECF1D9AA8958150A9F7CC24DD24C4
:107E500088248394B5E0AB2EA1E19A2EF3E0BF2EE7
:107E6000A2D0813461F49FD0082FAFD0023811F036
:107E7000013811F484E001C083E08DD089C08234E0
:107E800011F484E103C0853419F485E0A6D080C0E4
:107E9000853579F488D0E82EFF2485D0082F10E0AE
:107EA000102F00270E291F29000F111F8ED06801E7
:107EB0006FC0863521F484E090D080E0DECF843638
:107EC00009F040C070D06FD0082F6DD080E0C81688
:107ED00080E7D80618F4F601B7BEE895C0E0D1E017
:107EE00062D089930C17E1F7F0E0CF16F0E7DF06D8
:107EF00018F0F601B7BEE89568D007B600FCFDCFD4
:107F0000A601A0E0B1E02C9130E011968C91119780
:107F100090E0982F8827822B932B1296FA010C0160
:107F200087BEE89511244E5F5F4FF1E0A038BF0790
:107F300051F7F601A7BEE89507B600FCFDCF97BE46
:107F4000E89526C08437B1F42ED02DD0F82E2BD052
:107F50003CD0F601EF2C8F010F5F1F4F84911BD097
:107F6000EA94F801C1F70894C11CD11CFA94CF0C13
:107F7000D11C0EC0853739F428D08EE10CD085E9AC
:107F80000AD08FE07ACF813511F488E018D01DD067
:107F900080E101D065CF982F8091C00085FFFCCF94
:107FA0009093C60008958091C00087FFFCCF809118
:107FB000C00084FD01C0A8958091C6000895E0E648
:107FC000F0E098E1908380830895EDDF803219F02E
:107FD00088E0F5DFFFCF84E1DECF1F93182FE3DFCA
:107FE0001150E9F7F2DF1F91089580E0E8DFEE27F6
:047FF000FF270994CA
:027FFE00040479
:0400000300007E007B
:00000001FF
