:100000000C94F6020C941E030C941E030C941E0315
:100010000C941E030C941E030C941E030C941E03DC
:100020000C941E030C941E030C941E030C941E03CC
:100030000C941E030C941E030C941E030C941E03BC
:100040000C942B060C941E030C9405050C94DF04F1
:100050000C941E030C941E030C941E030C941E039C
:100060000C9475060C941E038F0A950AA10A910A36
:10007000970A9D0A990A510D570D6D0D530D590D93
:100080005F0D5B0D6364696E6F70737578585B000C
:1000900000000000003E5B4F5B3E3E6B4F6B3E1C22
:1000A0003E7C3E1C183C7E3C181C577D571C1C5E39
:1000B0007F5E1C00183C1800FFE7C3E7FF00182410
:1000C0001800FFE7DBE7FF30483A060E26297929BA
:1000D00026407F050507407F05253F5A3CE73C5AEF
:1000E0007F3E1C1C08081C1C3E7F14227F22145FCC
:1000F0005F005F5F06097F017F006689956A606027
:1001000060606094A2FFA29408047E040810207E20
:10011000201008082A1C08081C2A08081E101010A5
:10012000100C1E0C1E0C30383E3830060E3E0E06EB
:10013000000000000000005F00000007000700143E
:100140007F147F14242A7F2A1223130864623649FD
:100150005620500008070300001C224100004122E5
:100160001C002A1C7F1C2A08083E080800807030EA
:100170000008080808080000606000201008040259
:100180003E5149453E00427F40007249494946215F
:1001900041494D331814127F1027454545393C4AD3
:1001A00049493141211109073649494936464949EA
:1001B000291E000014000000403400000008142232
:1001C00041141414141400412214080201590906A0
:1001D0003E415D594E7C1211127C7F494949363EA1
:1001E000414141227F4141413E7F494949417F0987
:1001F0000909013E414151737F0808087F00417F92
:1002000041002040413F017F081422417F4040408F
:10021000407F021C027F7F0408107F3E4141413E27
:100220007F090909063E4151215E7F0919294626A9
:100230004949493203017F01033F4040403F1F20AD
:1002400040201F3F4038403F631408146303047884
:1002500004036159494D43007F41414102040810A4
:1002600020004141417F04020102044040404040DF
:10027000000307080020545478407F28444438384D
:1002800044444428384444287F38545454180008BF
:100290007E090218A4A49C787F0804047800447D99
:1002A00040002040403D007F1028440000417F4036
:1002B000007C047804787C0804047838444444388A
:1002C000FC1824241818242418FC7C08040408486A
:1002D0005454542404043F44243C4040207C1C20BB
:1002E00040201C3C4030403C44281028444C909016
:1002F000907C4464544C4400083641000000770070
:1003000000004136080002010204023C2623263C7C
:100310001EA1A161123A4040207A38545455592107
:1003200055557941225454784221555478402054EF
:100330005579400C1E52721239555555593954543D
:10034000545939555454580000457C410002457DAC
:10035000420001457C407D1211127DF0282528F0D5
:100360007C545545002054547C547C0A097F493202
:10037000494949323A4444443A324A4848303A4179
:1003800041217A3A42402078009DA0A07D3D424222
:10039000423D3D4040403D3C24FF2424487E4943AB
:1003A000662B2FFC2F2BFF0929F620C0887E09031E
:1003B00020545479410000447D413048484A323845
:1003C0004040227A007A0A0A727D0D19317D262971
:1003D000292F28262929292630484D402038080869
:1003E000080808080808382F10C8ACBA2F1028349D
:1003F000FA00007B000008142A142222142A140890
:100400005500550055AA55AA55AAFF55FF55FF009E
:100410000000FF00101010FF00141414FF00101053
:10042000FF00FF1010F010F0141414FC001414F767
:1004300000FF0000FF00FF1414F404FC1414171054
:100440001F10101F101F1414141F00101010F000A4
:100450000000001F101010101F10101010F01000DE
:100460000000FF101010101010101010FF100000EE
:1004700000FF140000FF00FF00001F10170000FC29
:1004800004F414141710171414F404F40000FF00FB
:10049000F714141414141414F700F7141414171484
:1004A00010101F101F141414F4141010F010F0008A
:1004B000001F101F0000001F14000000FC140000AB
:1004C000F010F01010FF10FF141414FF141010108F
:1004D0001F00000000F010FFFFFFFFFFF0F0F0F042
:1004E000F0FFFFFF0000000000FFFF0F0F0F0F0FD6
:1004F0003844443844FC4A4A4A347E020206060222
:100500007E027E0263554941633844443C04407E88
:10051000201E2006027E020299A5E7A5991C2A4901
:100520002A1C4C7201724C304A4D4D30304878488C
:1005300030BC625A463D3E494949007E0101017E78
:100540002A2A2A2A2A44445F444440514A444040CB
:10055000444A51400000FF0103E080FF000008080A
:100560006B6B083612362436060F090F060000188A
:10057000180000001010003040FF0101001F0101B1
:100580001E00191D1712003C3C3C3C0000000000FE
:1005900000000000240027002A00000000002500C1
:1005A00028002B000000000023002600290004047E
:1005B000040404040404020202020202030303030B
:1005C00003030102040810204080010204081020E7
:1005D00001020408102000000008000201000003CE
:1005E00004070000000000000000670B11241FBE7C
:1005F000CFEFD8E0DEBFCDBF13E0A0E0B1E0ECE686
:10060000F4E302C005900D92AA33B107D9F725E0B3
:10061000AAE3B3E001C01D92A733B207E1F712E0ED
:10062000C6EFD2E004C02197FE010E947612C53FBA
:10063000D107C9F70E94A00B0C94341A0C94000047
:10064000FC01538D448D252F30E0842F90E0821BD8
:10065000930B541710F0CF96089501970895FC015D
:10066000918D828D981761F0828DDF01A80FB11DE9
:100670005D968C91928D9F5F9F73928F90E008950D
:100680008FEF9FEF0895FC01918D828D981731F0C7
:10069000828DE80FF11D858D90E008958FEF9FEF1B
:1006A0000895FC01918D228D892F90E0805C9F4FF1
:1006B000821B91098F739927089584E394E00E9427
:1006C000510321E0892B09F420E0822F0895FC01D9
:1006D000848DDF01A80FB11DA35ABF4F2C91848DCB
:1006E00090E001968F739927848FA689B7892C9300
:1006F000A089B1898C9180648C93938D848D98139B
:1007000006C00288F389E02D80818F7D8083089563
:10071000EF92FF920F931F93CF93DF93EC0181E051
:10072000888F9B8D8C8D981305C0E889F98980810D
:1007300085FD24C0F62E0B8D10E00F5F1F4F0F7349
:100740001127E02E8C8DE8120CC00FB607FCFACFF3
:10075000E889F989808185FFF5CFCE010E94670382
:10076000F1CF8B8DFE01E80FF11DE35AFF4FF082B0
:100770000B8FEA89FB898081806207C0EE89FF893F
:100780006083E889F98980818064808381E090E0DA
:10079000DF91CF911F910F91FF90EF900895CF932C
:1007A000DF93EC01888D8823C9F0EA89FB89808179
:1007B00085FD05C0A889B9898C9186FD0FC00FB64B
:1007C00007FCF5CF808185FFF2CFA889B9898C918C
:1007D00085FFEDCFCE010E946703E7CFDF91CF9178
:1007E000089580E090E0892B29F00E945D0381113B
:1007F0000C9400000895833081F028F4813099F042
:100800008230A1F008958730A9F08830B9F08430A3
:10081000D1F4809180008F7D03C0809180008F771C
:1008200080938000089584B58F7702C084B58F7D52
:1008300084BD08958091B0008F7703C08091B0008F
:100840008F7D8093B000089585ED8093BC008091EA
:10085000BC0084FDFCCF10920F040895409160030A
:10086000262F30E0240F311D21323105DCF4209198
:100870000F042430C9F4FC0180E090E0861758F49E
:10088000309160032191DC01A25CBC4FA30FB11D2C
:100890002C930196F3CF80916003680F60936003FF
:1008A00080E0089581E0089582E00895089581E050
:1008B00090E030918F0320918E03321710F480E086
:1008C00090E0919581959109089580918F03909181
:1008D0008E03891730F48F5F80938F0380E090E060
:1008E00008958FEF9FEF089580918E0390E02091FF
:1008F0008F03821B91090895CF92DF92EF92FF92AE
:100900000F931F93CF93DF937C01262F972F8A019C
:1009100080911004882391F0C62FD72F6E01C40E4A
:10092000D51ECC15DD0571F06991D701ED91FC91D3
:100930000190F081E02DC7010995F3CF642F822F3C
:100940000E942E04C801DF91CF911F910F91FF905B
:10095000EF90DF90CF900895CF93DF931F92CDB7A4
:10096000DEB76983209110042223D1F02091330453
:10097000203240F021E030E0FC013383228380E02C
:1009800090E015C080911104E82FF0E0EE5EFB4F7F
:10099000998190838F5F809311048093330405C005
:1009A00061E0CE0101960E942E0481E090E00F905C
:1009B000DF91CF910895089580E090E008951F920F
:1009C0000F920FB60F9211242F933F934F935F9383
:1009D0006F937F938F939F93AF93BF93EF93FF9307
:1009E00084E394E00E946703FF91EF91BF91AF9180
:1009F0009F918F917F916F915F914F913F912F9137
:100A00000F900FBE0F901F9018951F920F920FB668
:100A10000F9211242F938F939F93EF93FF93E09165
:100A20004404F09145048081E0914A04F0914B0424
:100A300082FD12C0908180914D048F5F8F73209151
:100A40004E04821751F0E0914D04F0E0EC5CFB4F56
:100A5000958F80934D0401C08081FF91EF919F910C
:100A60008F912F910F900FBE0F901F901895CF93DD
:100A7000DF93282F30E0F901EA52FA4F8491F9010F
:100A8000EE53FA4FD491F901E255FA4FC491CC23B9
:100A900091F081110E94FB03EC2FF0E0EE0FFF1F9D
:100AA000EC55FA4FA591B491EC91ED2381E090E0E3
:100AB00021F480E002C080E090E0DF91CF910895C2
:100AC0001F93CF93DF93282F30E0F901EA52FA4FBA
:100AD0008491F901EE53FA4FD491F901E255FA4F9E
:100AE000C491CC23C9F0162F81110E94FB03EC2F77
:100AF000F0E0EE0FFF1FE656FA4FA591B4918FB7C5
:100B0000F894111105C09C91ED2FE095E92302C0E6
:100B1000EC91ED2BEC938FBFDF91CF911F91089556
:100B2000CF93DF9390E0FC01EE53FA4F2491FC0148
:100B3000E255FA4F8491882361F190E0880F991F64
:100B4000FC01E057FA4FC591D491FC01E656FA4FEB
:100B5000A591B491611109C09FB7F894888120953F
:100B600082238883EC912E230BC0623061F49FB7FF
:100B7000F8943881822F809583238883EC912E2BE3
:100B80002C939FBF06C08FB7F894E8812E2B288343
:100B90008FBFDF91CF9108953FB7F89480918A037A
:100BA00090918B03A0918C03B0918D0326B5A89BE7
:100BB00005C02F3F19F00196A11DB11D3FBFBA2FEF
:100BC000A92F982F8827820F911DA11DB11DBC014F
:100BD000CD0142E0660F771F881F991F4A95D1F714
:100BE00008958F929F92AF92BF92CF92DF92EF9231
:100BF000FF926B017C010E94CC054B015C01C1148A
:100C0000D104E104F104F1F00E94CC05DC01CB0138
:100C100088199909AA09BB09883E9340A105B10525
:100C200070F321E0C21AD108E108F10888EE880EBD
:100C300083E0981EA11CB11CC114D104E104F1048D
:100C400019F7DDCFFF90EF90DF90CF90BF90AF907E
:100C50009F908F9008951F920F920FB60F921124BC
:100C60002F933F938F939F93AF93BF93809186036E
:100C700090918703A0918803B091890330918503F7
:100C800023E0230F2D3720F40196A11DB11D05C0CF
:100C900026E8230F0296A11DB11D209385038093A2
:100CA000860390938703A0938803B0938903809170
:100CB0008A0390918B03A0918C03B0918D030196D0
:100CC000A11DB11D80938A0390938B03A0938C0385
:100CD000B0938D03BF91AF919F918F913F912F91D1
:100CE0000F900FBE0F901F9018951F920F920FB686
:100CF0000F9211242F933F934F935F936F937F93A2
:100D00008F939F93AF93BF93EF93FF938091B9001D
:100D1000887F803609F49CC068F5883209F45BC08E
:100D200090F4803109F454C038F4882309F4F6C0F3
:100D3000883009F44DC0F6C0883109F44CC08032C7
:100D400009F45DC0EFC0803409F468C048F4803312
:100D500009F455C0883309F0E5C080930D04D8C06C
:100D6000803509F44FC0883509F45DC0883409F036
:100D7000D9C0D6C0883909F4C7C0A8F4883709F4A7
:100D800067C038F4883609F463C0803709F460C05E
:100D9000C9C0883809F4B8C0803909F45FC0803808
:100DA00009F0C0C05BC0803B09F486C038F4803ACB
:100DB00009F466C0883A09F47FC0B4C0803C09F4E5
:100DC000A7C0883C09F4A4C0883B09F48AC0AAC023
:100DD0008091EA0310C090910C0480910B04981745
:100DE00070F5E0910C0481E08E0F80930C04F0E02C
:100DF000E551FC4F80818093BB0085EC86C08093D9
:100E00000D048EC0E0910C0481E08E0F80930C04E1
:100E10008091BB00F0E0E551FC4F808390910C0481
:100E200080910B046EC0E0910C0481E08E0F8093E2
:100E30000C048091BB00F0E0E551FC4F8083809171
:100E40000E0481116DC081E08093E90384EA61C0E2
:100E500083E080930F0410928403CFCF80918403AA
:100E6000803208F051C0E091840381E08E0F8093BE
:100E700084038091BB00F0E0EC59FC4F8083BDCF30
:100E800085EC8093BC0010920F0480918403803223
:100E900030F4E0918403F0E0EC59FC4F1082609153
:100EA000840370E0E0916203F091630384E693E0D1
:100EB00009951092840336C084E080930F04109249
:100EC000610310926003E0915E03F0915F03099566
:100ED00080916003811105C081E0809360031092CE
:100EE0003E03E091610381E08E0F80936103F0E0A7
:100EF000E25CFC4F80818093BB0090916103809104
:100F00006003981708F479CF85E88093BC000AC085
:100F100085EC8093BC0010920F0404C010920D0465
:100F20000E942404FF91EF91BF91AF919F918F9107
:100F30007F916F915F914F913F912F910F900FBED5
:100F40000F901F9018955091E703652F70E0FC01FA
:100F50004191442339F19091E803292F30E0D901E0
:100F60001196A617B70729F09F3379F451110DC0D8
:100F700006C0911104C088E58093E5030895F90146
:100F8000EB55FC4F88E580830895D901AA55BC4FE5
:100F90004C939F5F903419F09093E803D9CF10924F
:100FA000E803D6CF08950F931F93CF93DF93182FA5
:100FB000092F8BE090E00E947C12D82FC92F0F934D
:100FC0001F938FEE91E09F938F931F928BE08F93EF
:100FD000CF93DF930E94CB138D2F9C2F0E94A307EA
:100FE0008DB79EB708960FB6F8949EBF0FBE8DBF03
:100FF0008D2F9C2FDF91CF911F910F910C94111386
:10100000CF93C82F81E0809310048CE38093320447
:10101000109211041092330460E081ED94E00E947C
:10102000AC046C2F81ED94E00E94AC04CF910C9441
:101030000A0B5F926F927F928F929F92AF92BF92B4
:10104000CF92DF92EF92FF920F931F93CF93DF9394
:10105000CDB7DEB769970FB6F894DEBF0FBECDBF30
:1010600081E20E94000880E00E9400088FE70E9451
:10107000000882E20E94000880E00E94000887E0E9
:101080000E940008E12CF12C98E1892E8E010F5F5F
:101090001F4F25E1722E3CE0632E600E992493943D
:1010A000F801882D11928A95E9F7C12CD12C20E006
:1010B0008CE3582E8091BE0190E001968E0D9F1D0D
:1010C00087709927789EF001799EF00D1124EC0D20
:1010D000FD1DEA5EFE4F3081E5E03E02A0011124D5
:1010E00080E090E03F7D622F680F332339F0FC01F0
:1010F000E40FF51FE057FF4FE49101C0E0E0D80195
:10110000A60FB11DEC9301968530910561F785E03E
:10111000820F2A5FF801E80FF11D10822C30C9F40C
:1011200090921004509232041092110410923304E1
:1011300080E490E00E94050B5801F50161915F0188
:1011400081ED94E00E94AC046A10F7CF0E940A0B74
:1011500020E0FFEFCF1ADF0A85E1C816D10409F0BD
:10116000A9CF909210048CE3809332041092110462
:101170001092330480E490E0298F0E94050B6801EF
:10118000298D8C2D801B821748F4F60161916F0127
:1011900081ED94E0298F0E94AC04F2CF80E090E0D2
:1011A0000E94050B80E090E00E94050B0E940A0B54
:1011B000FFEFEF1AFF0A88E0E816F10409F070CF9C
:1011C00069960FB6F894DEBF0FBECDBFDF91CF9109
:1011D0001F910F91FF90EF90DF90CF90BF90AF9055
:1011E0009F908F907F906F905F9008950F931F93C3
:1011F000CF93DF93CDB7DEB78F8198850E947C12A5
:101200008C019E01255F3F4F49855A856F81788506
:101210000E9437140115110569F0F80101900020B2
:10122000E9F73197AF01401B510BB80184E394E01B
:101230000E94D80A42E050E062EF71E084E394E05B
:101240000E94D80AC8010E941113DF91CF911F910B
:101250000F91089585EF91E00E94A30780E48093A9
:101260007C0080917A00806480937A0080917A007B
:1012700086FDFCCF809178002091790090E0922B40
:1012800025E0289FB001299F700D1124072E000C26
:10129000880B990B0E94EA1120E030EC4FE754E4F0
:1012A0000E9440110E94B211CB010E94D30787EF28
:1012B00091E00C94A307CF92DF92EF92FF92C0903F
:1012C0003A03D0903B03E0903C03F0903D03C114FF
:1012D000D104E104F10459F40E94CC0560933A036F
:1012E00070933B0380933C0390933D0384C00E9422
:1012F000CC056C197D09653F81E078070CF473C05B
:101300008091940390919503A0919603B0919703D7
:10131000892B8A2B8B2BD1F48091990390919A037E
:10132000A0919B03B0919C03892B8A2B8B2B71F48A
:1013300080919D0390919E03A0919F03B091A00383
:10134000892B8A2B8B2B11F480E201C083E520913D
:10135000BF013091C00137FF02C090E201C092E5A9
:101360002091E603211102C020E201C023E7309161
:10137000A503311102C030E201C032E71F923F9352
:101380001F922F931F929F931F928F937F936F9320
:101390008AEF91E09F938F9380E091E09F938F93EA
:1013A0000E94FB132091BE0130E02F5F3F4F27705A
:1013B00033272093BE0145E1429FC001439F900D1A
:1013C000112445E150E060E071E08A5E9E4F0E948A
:1013D000BC130E9419088DB79EB70E960FB6F894ED
:1013E0009EBF0FBE8DBF10923A0310923B03109226
:1013F0003C0310923D03FF90EF90DF90CF90089553
:101400001092800060E089E00E9460050E94CC0597
:101410006093A1037093A2038093A3039093A4030A
:1014200008958F929F92AF92BF92CF92DF92EF92E8
:10143000FF92CF93DF931F92CDB7DEB76B017C0194
:101440008091940390919503A0919603B091970396
:10145000892B8A2B8B2B09F090C080919903909156
:101460009A03A0919B03B0919C03892B8A2B8B2B11
:1014700009F083C080919D0390919E03A0919F03EA
:10148000B091A003892B8A2B8B2B09F076C020E129
:1014900030E080E090E0DC01880F991FAA1FBB1F9D
:1014A0004601570151E085229924AA24BB248829AA
:1014B0009929AA29BB29F694E794D794C794215077
:1014C000310951F76C017D0160E270E020E03C2DB4
:1014D00031702327F694E794D794C794615071092B
:1014E000B1F72111A1608093900390939103A09391
:1014F0009203B093930381E18093980361E087E0C6
:1015000049830E946005498150E0FA013197E73034
:10151000F105D0F4EC5CFF4F61E00C9476128BE0A7
:1015200011C08BE00E94600561E08DE00BC08BE094
:1015300005C08BE00E94600561E08DE00E946005BF
:1015400061E08CE00E94600580E4809380000E944E
:10155000CC056093A1037093A2038093A30390939F
:10156000A40380E699E0A0E0B0E080939903909313
:101570009A03A0939B03B0939C030F90DF91CF91AC
:10158000FF90EF90DF90CF90BF90AF909F908F90A3
:1015900008954091C101742F7295770F707E60E0BD
:1015A00063607160072E000C880B990B0C94110A74
:1015B000CF92DF92EF92FF920F931F93CF93DF931F
:1015C0006C017A018B01C0E0D0E0CE15DF0589F017
:1015D000D8016D918D01D601ED91FC910190F081C2
:1015E000E02DC6010995892B11F47E0102C02196D8
:1015F000ECCFC701DF91CF911F910F91FF90EF903A
:10160000DF90CF9008950E94A913682F81ED94E098
:101610000C94AC042091330490913204213208F0F0
:101620004AC080910F048111FCCF32E030930F0447
:1016300031E030930E043FEF30930D0410920C0410
:1016400020930B04A2E1B4E04BEE53E0FA013E2FED
:10165000341B321718F43D913193F9CF1092EA03FD
:101660002091EA03990F922B9093EA039091E9035A
:10167000913061F41092E9039091EA039093BB00DA
:101680009091BC0093FDF8CF95EC01C095EE90933E
:10169000BC0090910F049230E1F390910D049F3FB4
:1016A00079F080910D04803241F080910D048033F7
:1016B00031F084E005C081E003C082E001C083E036
:1016C0001092110410923304109210040895E4E370
:1016D000F4E01382128288EE93E0A0E0B0E084830D
:1016E0009583A683B7832FEC31E03183208325ECEB
:1016F00030E03587248724EC30E03787268720ECDC
:1017000030E0318B208B21EC30E0338B228B22ECCC
:1017100030E0358B248B26EC30E0378B268B118E16
:10172000128E138E148EE1EDF4E013821282848304
:101730009583A683B78381EE91E09183808308959A
:10174000CF93DF9300D000D01F92CDB7DEB778944F
:1017500084B5826084BD84B5816084BD85B58260B6
:1017600085BD85B5816085BD80916E008160809367
:101770006E001092810080918100826080938100D0
:1017800080918100816080938100809180008160E0
:10179000809380008091B10084608093B10080913B
:1017A000B00081608093B00080917A008460809363
:1017B0007A0080917A00826080937A0080917A002A
:1017C000816080937A0080917A00806880937A00AB
:1017D0001092C10061E089E00E94900560E088E01D
:1017E0000E94900561E08AE00E94900561E087E038
:1017F0000E94900560E083E00E94900560E082E036
:101800000E94900560E08EE00E94900561E08BE010
:101810000E94900561E08DE00E94900561E08CE0FF
:101820000E94900561E084E00E94900561E085E0FF
:101830000E94900561E086E00E94900561E08AE0E8
:101840000E94600580E48093800089E0809381009D
:1018500010926F0012E016BB86E091E09093890031
:10186000809388000E94000AE0914404F0914504AE
:101870001083E0914004F09141041082E091420411
:10188000F091430480E1808310924C04E09148047D
:10189000F091490486E08083E0914604F09147048A
:1018A000808180618083E0914604F09147048081CB
:1018B00088608083E0914604F091470480818068CD
:1018C0008083E0914604F091470480818F7D80837E
:1018D00010928F0310928E03109211041092330411
:1018E00010920F0481E080930E041092E90361E0EE
:1018F00082E10E94600561E083E10E9460058091C1
:10190000B9008E7F8093B9008091B9008D7F80935C
:10191000B90088E48093B80085E48093BC008EEA27
:101920000E94000885ED0E94000880E80E940008DF
:1019300088EA0E9400088FE30E94000883ED0E945D
:10194000000880E00E94000880E40E9400088DE802
:101950000E94000884E10E94000880E20E940008C2
:1019600080E00E94000881EA0E94000888EC0E9442
:1019700000088AED0E94000882E10E94000881E8C8
:101980000E9400088FEC0E94000889ED0E94000868
:1019900081EF0E9400088BED0E94000880E40E9405
:1019A000000884EA0E94000886EA0E9400088EE28D
:1019B0000E9400088FEA0E9400080E94190888E52A
:1019C000482E82E0582E612C712C1E0122E0220E3E
:1019D000311C9E012D5F3F4F3D832C830E945B098C
:1019E0008091EB049091EC04019741F40E942A0944
:1019F00068EE73E080E090E00E94F1050E94CC0563
:101A00000091DE041091DF042091E0043091E104A4
:101A100008511C4F2F4F3F4F06171707280739074C
:101A200070F583E00E9437052091DD04892B89F051
:101A30002130D9F08091ED04882329F085E092E0EF
:101A40000E94A30702C00E94C90A81E08093DD04BE
:101A50000CC0222351F08091ED04882321F088E00E
:101A600092E00E94A3071092DD040E94CC056093CF
:101A7000DE047093DF048093E0049093E10482E03D
:101A80000E943705892B01F1E091C101F091C2015B
:101A90003197E730F10520F5E55CFF4F61E00C94EC
:101AA000761284E01BC084E00E94600561E085E05E
:101AB00015C084E005C084E00E94600561E085E017
:101AC0000E94600561E009C060E084E00E9460055A
:101AD00060E085E00E94600560E086E00E946005AD
:101AE0000E94CC050091A1031091A2032091A303B1
:101AF0003091A403DC01CB01801B910BA20BB30B33
:101B0000C0909D03D0909E03E0909F03F090A003AF
:101B1000C114D104E104F10491F08C159D05AE05CA
:101B2000BF0568F060E087E00E94600510929D03A9
:101B300010929E0310929F031092A0039BC0C0902E
:101B40009903D0909A03E0909B03F0909C03C114FA
:101B5000D104E104F104A9F18C159D05AE05BF0582
:101B600080F10E94000A1092990310929A03109239
:101B70009B0310929C0380919803882349F0409224
:101B8000940350929503609296037092970372C0EB
:101B900060E08BE00E94600560E08DE00E946005DF
:101BA00060E08CE00E94600580E49DE0A3E0B0E08E
:101BB00080939D0390939E03A0939F03B093A003F3
:101BC00059C0C0909403D0909503E0909603F09094
:101BD0009703C114D104E104F10409F44BC08C153E
:101BE0009D05AE05BF0508F445C080E480938000E4
:101BF0000E94CC056093A1037093A2038093A3037A
:101C00009093A4031092940310929503109296035C
:101C1000109297038091900390919103A091920369
:101C2000B091930380FF0DC020EB34E040E050E022
:101C30002093990330939A0340939B0350939C0302
:101C400008C04092990350929A0360929B0370924D
:101C50009C03B695A795979587958093900390934D
:101C60009103A0939203B0939303809198038150C2
:101C70008093980388E00E94370521E0892B09F0C2
:101C800020E08091EA04811111C0222309F44EC0A2
:101C90000E94CC056093E6047093E7048093E80407
:101CA0009093E90481E08093EA0447C1211145C182
:101CB0000E94CC056093E2047093E3048093E404F3
:101CC0009093E504C090E604D090E704E090E80427
:101CD000F090E904DC01CB018C199D09AE09BF0924
:101CE0006C017D0130E6C31A39E0D30AE108F1083E
:101CF00048ECC416D104E104F1040CF06EC259E3BF
:101D0000C5165FEFD506E506F5060CF466C210921F
:101D10002F05109230051092310510923205109265
:101D2000C0011092BF011092EA0407C1C090E20402
:101D3000D090E304E090E404F090E504C114D104F1
:101D4000E104F10409F4F9C00E94CC05DC01CB01E7
:101D50008C199D09AE09BF09893E9340A105B105C3
:101D600008F4EBC01092E2041092E3041092E40431
:101D70001092E5048091BF019091C001892B09F474
:101D8000DCC080912F0590913005A0913105B09174
:101D90003205AC01BD0120E230E0E0E0F42FF1704B
:101DA000EF27769567955795479521503109B1F7FB
:101DB000EE2319F08BE092E0B0C0B695A795979509
:101DC00087954C015D01882450EE9522AA24BB24FE
:101DD000FDE0B694A79497948794FA95D1F76C0197
:101DE0007D01CC243FE1D322EE24FF248114910411
:101DF000A104B10409F067C077276F2D5E2D4D2D2A
:101E0000433029F150F44130E9F0423009F048C044
:101E10001F928F93A6E9B2E035C0463129F04731D1
:101E200061F04930E9F51CC01F928F93AEE0B2E03B
:101E3000BF93AF931F9284E129C01F928F93A1E2B9
:101E4000B2E020C01F928F93A6E3B2E01BC01F92A6
:101E50008F93ABE4B2E0BF93AF931F9285E116C0BE
:101E6000843051F0863029F0811109C08FE592E06D
:101E700054C08FE692E051C083E792E04EC084E800
:101E800092E04BC0BF93AF931F9286E18F930E9465
:101E9000F6080F900F900F900F900F900F903FC08B
:101EA000BF93AF939F938F93ABEAB2E0BF93AF938F
:101EB0001F928DE18F930E94F6080FB6F894DEBF53
:101EC0000FBECDBF2CC0CD2CDE2CEF2CFF248823E1
:101ED00051F0853610F4182F07C081EC92E00E9473
:101EE000A30710E001C01FEF83ED92E00E94A3075B
:101EF000C4010E94D30785ED92E00E94A307C601AA
:101F00000E94D30785ED92E00E94A307812F110F55
:101F1000990B0E94D30783EF91E00E94A3078FEFF4
:101F20009FEF9093C0018093BF0110922F051092F4
:101F30003005109231051092320584E394E00E943E
:101F40002F038F3FAFEF9A0719F41092A5031CC11E
:101F500021E02093A50310912E05E12FF0E0E2513E
:101F6000FB4F8083210F20932E05203438F01092F0
:101F70002E050A9709F008C11FEF35C00A9709F02E
:101F800003C1112309F4FEC0113051F58091EE0414
:101F9000863619F40E94C90AF5C0823619F40E94E7
:101FA0002A09F0C0833759F460E573EC80E090E0D3
:101FB0000E94F10560E08AE00E946005E3C083367C
:101FC00029F41093ED0487ED92E007C0843609F000
:101FD0005CC01092ED048AED92E00E94A307D2C08B
:101FE000153008F452C044E050E06EEE74E08DED20
:101FF00092E00E94AE13892B71F521E030E02C0FA6
:102000003D1F3F932F933F922F923D813F934C81F1
:102010004F9382EE92E09F938F938EEE94E09F9386
:102020008F930E941E144B81642F70E0762F6627D9
:102030007295770F707E8A81782B8981682B072EA5
:10204000000C880B990B0E94110A0FB6F894DEBFA2
:102050000FBECDBF97C01D3058F04CE050E06EEE83
:1020600074E087EF92E00E94AE13892B19F497CFAA
:10207000193058F048E050E06EEE74E084E093E0F0
:102080000E94AE13892B09F48FCF44E050E06EEE2E
:1020900074E08DE093E00E94AE13892B39F481E067
:1020A00090E09093EC048093EB046CC0143008F43F
:1020B00069C043E050E06EEE74E082E193E00E947C
:1020C000AE13892B19F481E090E058C0163068F007
:1020D00045E050E06EEE74E086E193E00E94AE13BE
:1020E000892B31F482E090E049C0153008F44AC0F1
:1020F00044E050E06EEE74E08CE193E00E94AE1399
:10210000892B19F483E090E039C01730D0F046E015
:1021100050E06EEE74E081E293E00E94AE13892BF2
:1021200019F484E090E02AC046E050E06EEE74E0DE
:1021300088E293E00E94AE13892B29F485E090E0B9
:102140001DC01530F8F044E050E06EEE74E08FE210
:1021500093E00E94AE13892B19F486E090E00EC044
:10216000163080F045E050E06EEE74E084E393E0DA
:102170000E94AE13892B31F487E090E09093C20166
:102180008093C10110922E05A091E7038091E8038E
:102190008A1303C01092E6031BC0E0913404F0914F
:1021A0003504B0E0AA55BC4F0190F081E02D6C9150
:1021B00084E394E009958091E7038F5F803419F000
:1021C0008093E70302C01092E70381E08093E60367
:1021D0000E945B090E94F10301CC6C017D0120EBA0
:1021E000C21A24E0D20AE108F10838ECC316D1047F
:1021F000E104F104BCF429E3C2162FEFD206E20693
:10220000F20684F080912F0590913005A091310560
:10221000B0913205880F991FAA1FBB1F0196A11DFF
:10222000B11D1CC088559240A109B109883C910597
:10223000A105B1050CF077CD89339F4FAF4FBF4F4C
:102240000CF471CD80912F0590913005A09131054E
:10225000B0913205880F991FAA1FBB1F80932F05CD
:1022600090933005A0933105B09332058091BF0162
:102270009091C00101969093C0018093BF0153CD0E
:102280000E9454110C943C120E94351258F00E9486
:102290002E1240F029F45F3F29F00C9425125111C1
:1022A0000C9470120C942B120E944D1268F3992317
:1022B000B1F3552391F3951B550BBB27AA27621742
:1022C0007307840738F09F5F5F4F220F331F441F4F
:1022D000AA1FA9F335D00E2E3AF0E0E832D0915083
:1022E0005040E695001CCAF72BD0FE2F29D0660F70
:1022F000771F881FBB1F261737074807AB07B0E8B3
:1023000009F0BB0B802DBF01FF2793585F4F3AF0B8
:102310009E3F510578F00C9425120C9470125F3F8B
:10232000E4F3983ED4F3869577956795B795F7953E
:102330009F5FC9F7880F911D9695879597F9089526
:10234000E1E0660F771F881FBB1F621773078407C2
:10235000BA0720F0621B730B840BBA0BEE1F88F7D1
:10236000E09508950E94B9116894B1110C9470120F
:1023700008950E94551288F09F5798F0B92F992719
:10238000B751B0F0E1F0660F771F881F991F1AF060
:10239000BA95C9F714C0B13091F00E946F12B1E044
:1023A00008950C946F12672F782F8827B85F39F043
:1023B000B93FCCF3869577956795B395D9F73EF4F9
:1023C00090958095709561957F4F8F4F9F4F0895A1
:1023D000E89409C097FB3EF49095809570956195BF
:1023E0007F4F8F4F9F4F9923A9F0F92F96E9BB2775
:1023F0009395F695879577956795B795F111F8CFF1
:10240000FAF4BB0F11F460FF1BC06F5F7F4F8F4F5B
:102410009F4F16C0882311F096E911C0772321F051
:102420009EE8872F762F05C0662371F096E8862FE9
:1024300070E060E02AF09A95660F771F881FDAF740
:10244000880F9695879597F9089597F99F6780E883
:1024500070E060E008959FEF80EC089500240A94F6
:102460001616170618060906089500240A9412166F
:102470001306140605060895092E0394000C11F4A2
:10248000882352F0BB0F40F4BF2B11F460FF04C04F
:102490006F5F7F4F8F4F9F4F089557FD9058440FA8
:1024A000551F59F05F3F71F04795880F97FB991FB3
:1024B00061F09F3F79F08795089512161306140670
:1024C000551FF2CF4695F1DF08C0161617061806FD
:1024D000991FF1CF86957105610508940895E894D8
:1024E000BB2766277727CB0197F90895EE0FFF1FCB
:1024F0000590F491E02D0994CF93DF9382309105FC
:1025000010F482E090E0E0913505F091360520E08E
:1025100030E0C0E0D0E0309711F1408151814817A0
:102520005907C0F04817590761F4828193812097B9
:1025300019F09B838A832BC09093360580933505D1
:1025400026C02115310519F04217530718F49A01D6
:10255000BE01DF01EF010280F381E02DDCCF211508
:10256000310509F1281B390B2430310590F41296FE
:102570008D919C9113976115710521F0FB01938357
:10258000828304C09093360580933505FD01329611
:1025900044C0FD01E20FF31F819391932250310952
:1025A0002D933C933AC02091330530913405232B71
:1025B00041F42091C5013091C60130933405209338
:1025C00033052091C3013091C4012115310541F437
:1025D0002DB73EB74091C7015091C801241B350B60
:1025E000E0913305F0913405E217F307A0F42E1BB8
:1025F0003F0B2817390778F0AC014E5F5F4F241767
:10260000350748F04E0F5F1F509334054093330554
:102610008193919302C0E0E0F0E0CF01DF91CF9190
:1026200008950F931F93CF93DF93009709F48CC005
:10263000FC01329713821282009135051091360504
:102640000115110581F420813181820F931F2091A2
:102650003305309134052817390779F5F09334059F
:10266000E093330571C0D80140E050E0AE17BF07DA
:1026700050F412962D913C911397AD01211531051F
:1026800009F1D901F3CF9D01DA01338322836081FF
:102690007181860F971F8217930769F4EC012881D7
:1026A0003981260F371F2E5F3F4F318320838A8168
:1026B0009B8193838283452B29F4F0933605E09325
:1026C000350542C01396FC93EE931297ED014991A4
:1026D00059919E01240F351FE217F30771F4808191
:1026E0009181840F951F029611969C938E938281FF
:1026F000938113969C938E931297E0E0F0E0D801BB
:1027000012968D919C911397009719F0F8018C0106
:10271000F6CF8D919C9198012E5F3F4F820F931FB2
:1027200020913305309134052817390769F4309723
:1027300029F4109236051092350502C013821282D8
:102740001093340500933305DF91CF911F910F91C2
:10275000089581E090E0F8940C94341AFB01DC01B8
:102760004150504030F08D910190801919F40020B3
:10277000B9F7881B990B0895FB01DC0141505040CB
:1027800048F001900D920020C9F701C01D92415000
:102790005040E0F70895AEE0B0E0E1EDF3E10C94D5
:1027A0000B1A0D891E898F89988D26E02C831A8338
:1027B000098397FF02C080E090E801979E838D8394
:1027C000AE01455E5F4F698D7A8DCE0101960E9404
:1027D00063144D815E8157FD0AC02F8138854217F1
:1027E00053070CF49A01F801E20FF31F10822E96A2
:1027F000E4E00C94271AAEE0B0E0E1E0F4E10C94E0
:102800000B1A0D891E8986E08C831A8309838FEF4A
:102810009FE79E838D83AE01475E5F4F6F89788D02
:10282000CE0101960E9463142F813885F801E20FD2
:10283000F31F10822E96E4E00C94271AAEE0B0E06D
:10284000E4E2F4E10C940D1A85E08C838B899C8979
:102850009A838983AE01495E5F4F6D897E89CE017F
:1028600001960E94B5172E96E2E00C94291AAEE06C
:10287000B0E0EDE3F4E10C940B1A8C01CA0146E0E0
:102880004C831A83098377FF02C060E070E8FB0184
:102890003197FE83ED83A901BC01CE0101960E9410
:1028A00063144D815E8157FD0AC02F813885421720
:1028B00053070CF49A01F801E20FF31F10822E96D1
:1028C000E4E00C94271AACE0B0E0E9E6F4E10C9403
:1028D000FD197C016B018A01FC011782168283813C
:1028E00081FFBDC1CE0101964C01F7019381F60134
:1028F00093FD859193FF81916F01882309F4ABC10A
:10290000853239F493FD859193FF81916F01853272
:1029100029F4B70190E00E944B19E7CF512C312CDC
:1029200020E02032A0F48B3269F030F4803259F08C
:10293000833269F420612CC08D3239F0803339F450
:10294000216026C02260246023C0286021C027FDAA
:1029500027C030ED380F3A3078F426FF06C0FAE091
:102960005F9E300D1124532E13C08AE0389E300D27
:102970001124332E20620CC08E3221F426FD6BC14F
:10298000206406C08C3611F4206802C0883641F4F9
:10299000F60193FD859193FF81916F018111C1CF64
:1029A000982F9F7D9554933028F40C5F1F4FFFE3C1
:1029B000F9830DC0833631F0833771F0833509F028
:1029C0005BC022C0F801808189830E5F1F4F4424C1
:1029D0004394512C540115C03801F2E06F0E711C64
:1029E000F801A080B18026FF03C0652D70E002C011
:1029F0006FEF7FEFC5012C870E9402192C01830124
:102A00002C852F77222E17C03801F2E06F0E711C33
:102A1000F801A080B18026FF03C0652D70E002C0E0
:102A20006FEF7FEFC5012C870E94F7182C012C85D2
:102A30002068222E830123FC1BC0832D90E04816C2
:102A40005906B0F4B70180E290E00E944B193A9425
:102A5000F4CFF50127FC859127FE81915F01B70135
:102A600090E00E944B1931103A94F1E04F1A51084E
:102A70004114510471F7E5C0843611F0893639F5F7
:102A8000F80127FF07C060817181828193810C5F0B
:102A90001F4F08C060817181072E000C880B990BB5
:102AA0000E5F1F4F2F76722E97FF09C0909580956D
:102AB000709561957F4F8F4F9F4F2068722E2AE04F
:102AC00030E0A4010E949C19A82EA81844C08537A4
:102AD00029F42F7EB22E2AE030E025C0F22FF97FB4
:102AE000BF2E8F36C1F018F4883579F0B4C0803726
:102AF00019F0883721F0AFC02F2F2061B22EB4FE1D
:102B00000DC08B2D8460B82E09C024FF0AC09F2FF2
:102B10009660B92E06C028E030E005C020E130E024
:102B200002C020E132E0F801B7FE07C06081718188
:102B3000828193810C5F1F4F06C06081718180E0AC
:102B400090E00E5F1F4FA4010E949C19A82EA818A8
:102B5000FB2DFF777F2E76FE0BC0372D3E7FA51411
:102B600050F474FE0AC072FC08C0372D3E7E05C0CA
:102B7000BA2C372D03C0BA2C01C0B52C34FF0DC0C0
:102B8000FE01EA0DF11D8081803311F4397E09C008
:102B900032FF06C0B394B39404C0832F867809F043
:102BA000B39433FD13C030FF06C05A2CB31418F48D
:102BB000530C5B18B32CB31468F4B70180E290E0B7
:102BC0003C870E944B19B3943C85F5CFB31410F4A5
:102BD0003B1801C0312C34FF12C0B70180E390E0F4
:102BE0003C870E944B193C8532FF17C031FD03C062
:102BF00088E790E002C088E590E0B7010CC0832F21
:102C0000867859F031FF02C08BE201C080E237FDC7
:102C10008DE2B70190E00E944B19A51438F4B7017A
:102C200080E390E00E944B195A94F7CFAA94F401E4
:102C3000EA0DF11D8081B70190E00E944B19A110AF
:102C4000F5CF332009F451CEB70180E290E00E9425
:102C50004B193A94F6CFF7018681978102C08FEF26
:102C60009FEF2C96E2E10C94191A20FD09C0FC019B
:102C700023FD05C022FF02C073836283518340831A
:102C8000089544FD10C046FD10C0DB01FC01AA0FF1
:102C9000BB1FEE1FFF1F1094D1F76A0F7B1F8E1F03
:102CA0009F1F31E003C033E001C034E0660F771F9F
:102CB000881F991F3150D1F7620F711D811D911D21
:102CC00008950F931F93CF93DF938C01C8010E9447
:102CD0000D19EC0197FD08C00E94E318892BB1F78C
:102CE000B801CE010E948319CE01DF91CF911F91CF
:102CF0000F910895A1E0B0E0E0E8F6E10C94031A2A
:102D00008C01C62E7A0129830E940D19AC0155272A
:102D100029814B32510521F04D32510569F420686B
:102D2000CA94C11002C080E076C0C80129830E9405
:102D30000D19298197FDF7CF322F3D7FD32E322FEA
:102D4000307349F5803339F5BB24BA94BC0C09F4CF
:102D50004EC0C80129830E940D19298197FD47C0E3
:102D6000382F3F7D383569F48D2D8264D82ECA9472
:102D7000CA94CC20E1F1C8010E940D1997FF0BC045
:102D800036C026FF04C02D2D2260D22E03C03D2D5B
:102D90003261D32ECB2C812C912C540120ED280FA5
:102DA000283080F0D4FE04C0B8010E9483191CC0F2
:102DB0002A3040F0D6FEF8CF2F7D3FEE320F36306E
:102DC00098F727504D2DC501B4010E9441164B01C3
:102DD0005C018D2D8260D82ECA94CC2059F0C80198
:102DE0000E940D1997FFDACFD1FC04C09CCF812C33
:102DF000912C5401D7FE08C0B094A0949094809474
:102E0000811C911CA11CB11C2D2DB501A401C70171
:102E10000E94351681E02196ECE00C941F1AA1E285
:102E2000B0E0E5E1F7E10C94011A5C017A01CE0112
:102E300001966C0180E2F60111928A95E9F7F5019D
:102E4000838040E050E0912C712C70E0A1E0B0E074
:102E5000F90183FC859183FE81918F01982F9F0159
:102E6000811103C080E090E07CC08E3519F44115DB
:102E7000510549F1E72FF0E0E417F5073CF48D35F3
:102E800059F18D3219F4772001F103C0711001C09E
:102E9000982E892F8695869586958601080F111D97
:102EA000892F87703D0101C0660C8A95EAF7F80109
:102EB000808186298083991559F0991510F49F5FB8
:102EC000E8CF9150E6CF71E004C07724739401C03D
:102ED000712C4F5F5F4FBCCF772019F08E818062DD
:102EE0008E83711103C09924939416C0F6019E013C
:102EF0002F5D3F4F808180958193E217F307D1F7D3
:102F0000F2CFE114F10429F0F7018083C7010196A3
:102F10007C016150912CF9F0C50169A30E940D1943
:102F200069A197FD16C0282F269526952695F601AE
:102F3000E20FF11D208130E0AC014770552702C03F
:102F4000359527954A95E2F720FDDBCFB5010E9424
:102F50008319911087CFE114F10411F0F701108269
:102F6000C801A196EEE00C941D1A4F925F927F92D9
:102F70008F929F92AF92BF92CF92DF92EF92FF9289
:102F80000F931F93CF93DF931F92CDB7DEB76C01E2
:102F90002B015A01FC0117821682712CF601F38075
:102FA000F201F3FC8591F3FE8191382F2F018823E4
:102FB00009F4F3C090E039830E94E3183981892B2A
:102FC00021F0C6010E946116E9CF353241F4F201C9
:102FD000F3FC3591F3FE31912F01353269F4C601CE
:102FE00039830E940D19398197FDD5C03817B1F288
:102FF000B6010E948319D1C03A3239F4F3FC3591FD
:10300000F3FE31912F0151E001C050E0420110E088
:1030100020ED230F2A3090F45260612F70E080E0A1
:1030200090E040E259830E944116162FF401F3FC10
:103030003591F3FE31914F015981EACF052F232FAE
:10304000240151FF03C0111102C0A7C01FEF383681
:1030500019F03C3659F011C0F401F3FC2591F3FE50
:1030600021912F01283649F4052F08600460F201F0
:10307000F3FC2591F3FE21912F01222309F48DC049
:10308000622F70E084E890E029830E94EC18298187
:10309000892B09F482C000FD07C0F501E080F180B2
:1030A000C50102965C0102C0E12CF12C2E3651F4D0
:1030B000F6014681578160E070E0202FC7010E9431
:1030C00035166CCF233691F401FF11E0C6010E9442
:1030D0000D1997FD60C0E114F10429F0F701808318
:1030E000C70101967C01115089F751C02B3559F465
:1030F0009201A701612FC6010E940F172C01892B95
:1031000009F045C03FC0C60129830E94611629818C
:1031100097FD41C02F3659F128F4243631F1293674
:1031200049F127C0233769F02537F9F022C0E114AF
:10313000F10429F0F7018082C70101967C0111504A
:1031400071F0C6010E940D194C0197FD08C00E9444
:10315000E318892B61F3B601C4010E948319E114BD
:10316000F104A9F0F701108212C0006203C00061EF
:1031700001C00064202FA701612FC6010E947A16AA
:10318000811105C0F6018381807329F406C000FD1A
:1031900005CF739403CF772019F0872D90E002C0FC
:1031A0008FEF9FEF0F90DF91CF911F910F91FF90C5
:1031B000EF90DF90CF90BF90AF909F908F907F90D7
:1031C0005F904F90089591110C94FA19803219F084
:1031D00089508550C8F70895FC010590061621F026
:1031E0000020D9F7C00108953197CF010895FC015F
:1031F0000590615070400110D8F7809590958E0F22
:103200009F1F0895FC016150704001900110D8F794
:10321000809590958E0F9F1F0895CF93DF93EC01BB
:103220002B8120FF33C026FF0AC02F7B2B838E818A
:103230009F8101969F838E838A8190E029C022FF1F
:103240000FC0E881F9818081082E000C990B00974E
:1032500019F420622B831AC03196F983E8830EC0DB
:10326000EA85FB85099597FF09C02B81019611F02E
:1032700080E201C080E1822B8B8308C02E813F81D8
:103280002F5F3F4F3F832E83992702C08FEF9FEF21
:10329000DF91CF9108950F931F93CF93DF93FB019D
:1032A000238121FD03C08FEF9FEF28C022FF16C0AE
:1032B00046815781248135814217530744F4A08108
:1032C000B1819D012F5F3F4F318320838C932681F5
:1032D00037812F5F3F4F3783268310C0EB01092FC3
:1032E000182F0084F185E02D0995892BE1F68E8158
:1032F0009F8101969F838E83812F902FDF91CF91A5
:103300001F910F910895FB01238120FF12C026FD1C
:1033100010C08F3F3FEF930761F082832F7D2064C1
:1033200023832681378121503109378326839927CA
:1033300008958FEF9FEF0895FA01AA27283051F1E1
:10334000203181F1E8946F936E7F6E5F7F4F8F4FD6
:103350009F4FAF4FB1E03ED0B4E03CD0670F781F35
:10336000891F9A1FA11D680F791F8A1F911DA11D1A
:103370006A0F711D811D911DA11D20D009F4689453
:103380003F912AE0269F11243019305D3193DEF6FB
:10339000CF010895462F4770405D4193B3E00FD0B1
:1033A000C9F7F6CF462F4F70405D4A3318F0495D9C
:1033B00031FD4052419302D0A9F7EACFB4E0A6957F
:1033C0009795879577956795BA95C9F700976105A1
:1033D000710508959B01AC010A2E069457954795F7
:1033E00037952795BA95C9F7620F731F841F951FEC
:1033F000A01D08959927882708952F923F924F92F4
:103400005F926F927F928F929F92AF92BF92CF9274
:10341000DF92EF92FF920F931F93CF93DF93CDB77D
:10342000DEB7CA1BDB0B0FB6F894DEBF0FBECDBFF5
:1034300009942A88398848885F846E847D848C84C6
:103440009B84AA84B984C884DF80EE80FD800C81CF
:103450001B81AA81B981CE0FD11D0FB6F894DEBFB2
:0C3460000FBECDBFED010895F894FFCF22
:10346C002020202020202020202020202020202050
:10347C002020202020002020202020202020202060
:10348C002F5C202020202020202000202020202005
:10349C00202020202F20205C2020202020202000F5
:1034AC0020202020202020202F202020205C2020C5
:1034BC002020202000202020202020202F20202011
:1034CC002020205C202020202000202020202020D4
:1034DC002F20202020202020205C202020200020B5
:1034EC00202020202F202020202020202020205C85
:1034FC0020202000202020202F2046697265537444
:10350C006F726D20205C2020002020202F5F5F5FD9
:10351C005F5F5F5F5F5F5F5F5F5F5F5C200007FF08
:10352C00FF070000003705800060090000000088DC
:10353C0003D80A2003CF0351032F034303000000D9
:10354C0000AC047C04DC04560474046504570425A4
:10355C0064000D0A0042002F6E002564256325636C
:10356C002563256300540A00740A00430A0053685B
:10357C006F74285365745465616D28257529290A63
:10358C000053686F7428536574506C6179657228A8
:10359C00257529290A0053686F74284164644865AD
:1035AC00616C746828257529290A0053686F742882
:1035BC00416464436C69707328257529290A00538A
:1035CC00686F74284B696C6C65642829290A00465D
:1035DC00410A0053686F74285265537061776E28E6
:1035EC0029290A0053686F7428556E6B6E6F776EBD
:1035FC0047474D290A0053686F7428416464526F21
:10360C00756E647328257529290A0053686F742810
:10361C00556E6B6E6F776E534D28256C7529290A84
:10362C000053686F7428556E6B6E6F776E446D67C0
:10363C00290A0048002C00630A00640A00466972DB
:10364C0065004669726528256868642C256868647D
:10365C002C2568686429004261747465727943682A
:10366C0065636B0053687574646F776E0074657373
:10367C00740072656400677265656E00626C7565D6
:10368C000079656C6C6F7700707572706C65006397
:0A369C0079616E00776869746500BB
:107E0000112484B714BE81FFF0D085E080938100F7
:107E100082E08093C00088E18093C10086E0809377
:107E2000C20080E18093C4008EE0C9D0259A86E02C
:107E300020E33CEF91E0309385002093840096BBD3
:107E4000B09BFECF1D9AA8958150A9F7CC24DD24C4
:107E500088248394B5E0AB2EA1E19A2EF3E0BF2EE7
:107E6000A2D0813461F49FD0082FAFD0023811F036
:107E7000013811F484E001C083E08DD089C08234E0
:107E800011F484E103C0853419F485E0A6D080C0E4
:107E9000853579F488D0E82EFF2485D0082F10E0AE
:107EA000102F00270E291F29000F111F8ED06801E7
:107EB0006FC0863521F484E090D080E0DECF843638
:107EC00009F040C070D06FD0082F6DD080E0C81688
:107ED00080E7D80618F4F601B7BEE895C0E0D1E017
:107EE00062D089930C17E1F7F0E0CF16F0E7DF06D8
:107EF00018F0F601B7BEE89568D007B600FCFDCFD4
:107F0000A601A0E0B1E02C9130E011968C91119780
:107F100090E0982F8827822B932B1296FA010C0160
:107F200087BEE89511244E5F5F4FF1E0A038BF0790
:107F300051F7F601A7BEE89507B600FCFDCF97BE46
:107F4000E89526C08437B1F42ED02DD0F82E2BD052
:107F50003CD0F601EF2C8F010F5F1F4F84911BD097
:107F6000EA94F801C1F70894C11CD11CFA94CF0C13
:107F7000D11C0EC0853739F428D08EE10CD085E9AC
:107F80000AD08FE07ACF813511F488E018D01DD067
:107F900080E101D065CF982F8091C00085FFFCCF94
:107FA0009093C60008958091C00087FFFCCF809118
:107FB000C00084FD01C0A8958091C6000895E0E648
:107FC000F0E098E1908380830895EDDF803219F02E
:107FD00088E0F5DFFFCF84E1DECF1F93182FE3DFCA
:107FE0001150E9F7F2DF1F91089580E0E8DFEE27F6
:047FF000FF270994CA
:027FFE00040479
:0400000300007E007B
:00000001FF
