:100000000C945D000C9485000C9485000C94850084
:100010000C9485000C9485000C9485000C9485004C
:100020000C9485000C9485000C9485000C9485003C
:100030000C9485000C9485000C9485000C9485002C
:100040000C94E2020C9485000C94B0020C948A0289
:100050000C9485000C9485000C9485000C9485000C
:100060000C9485000C9485000000000024002700FB
:100070002A0000000000250028002B0004040404CE
:100080000404040402020202020203030303030342
:10009000010204081020408001020408102001021F
:1000A00004081020000000080002010000030407FB
:1000B00000000000000000003F0411241FBECFEF2D
:1000C000D8E0DEBFCDBF11E0A0E0B1E0E2EFF8E0A4
:1000D00002C005900D92A835B107D9F721E0A8E537
:1000E000B1E001C01D92AE3FB207E1F710E0CDE5EF
:1000F000D0E004C02197FE010E946C04CC35D107EA
:10010000C9F70E942C030C9477040C940000CF9242
:10011000DF92EF92FF920F931F93CF93DF936C01C7
:100120007A018B01C0E0D0E0CE15DF0589F0D8015F
:100130006D918D01D601ED91FC910190F081E02D42
:10014000C6010995892B11F47E0102C02196ECCFDE
:10015000C701DF91CF911F910F91FF90EF90DF903A
:10016000CF900895089580E090E00895FC01538DAC
:10017000448D252F30E0842F90E0821B930B541781
:1001800010F0CF96089501970895FC01918D828D0E
:10019000981761F0828DDF01A80FB11D5D968C91DB
:1001A000928D9F5F9F73928F90E008958FEF9FEFE6
:1001B0000895FC01918D828D981731F0828DE80FA2
:1001C000F11D858D90E008958FEF9FEF0895FC015C
:1001D000918D228D892F90E0805C9F4F821B910929
:1001E0008F739927089581E691E00E94E70021E04E
:1001F000892B09F420E0822F0895FC01848DDF0112
:10020000A80FB11DA35ABF4F2C91848D90E0019689
:100210008F739927848FA689B7892C93A089B18978
:100220008C9180648C93938D848D981306C0028882
:10023000F389E02D80818F7D80830895EF92FF9276
:100240000F931F93CF93DF93EC0181E0888F9B8DF9
:100250008C8D981305C0E889F989808185FD24C0BB
:10026000F62E0B8D10E00F5F1F4F0F731127E02E3E
:100270008C8DE8120CC00FB607FCFACFE889F9891B
:10028000808185FFF5CFCE010E94FD00F1CF8B8DDF
:10029000FE01E80FF11DE35AFF4FF0820B8FEA8950
:1002A000FB898081806207C0EE89FF896083E889CD
:1002B000F98980818064808381E090E0DF91CF9133
:1002C0001F910F91FF90EF900895CF93DF93EC0172
:1002D000888D8823C9F0EA89FB89808185FD05C066
:1002E000A889B9898C9186FD0FC00FB607FCF5CFA0
:1002F000808185FFF2CFA889B9898C9185FFEDCFE8
:10030000CE010E94FD00E7CFDF91CF91089580E0FC
:1003100090E0892B29F00E94F30081110C940000D9
:10032000089590E0FC01EC55FF4F3491FC01E0573B
:10033000FF4F2491FC01E458FF4FE491EE2309F4B0
:100340003BC0332339F1333091F038F43130A9F028
:10035000323001F584B58F7D12C0373091F03830DE
:10036000A1F03430B9F4809180008F7D03C080917A
:1003700080008F77809380000DC084B58F7784BD17
:1003800009C08091B0008F7703C08091B0008F7D4D
:100390008093B000F0E0EE0FFF1FEE58FF4FA591E5
:1003A000B4918FB7F894EC91611103C020952E237E
:1003B00001C02E2B2C938FBF0895CF93DF9390E035
:1003C000FC01E057FF4F2491FC01E458FF4F84915A
:1003D000882361F190E0880F991FFC01E859FF4FD5
:1003E000C591D491FC01EE58FF4FA591B4916111D4
:1003F00009C09FB7F8948881209582238883EC9167
:100400002E230BC0623061F49FB7F8943881822F9D
:10041000809583238883EC912E2B2C939FBF06C05D
:100420008FB7F894E8812E2B28838FBFDF91CF916F
:1004300008953FB7F89480915D0190915E01A0917D
:100440005F01B091600126B5A89B05C02F3F19F050
:100450000196A11DB11D3FBFBA2FA92F982F882744
:10046000820F911DA11DB11DBC01CD0142E0660F9F
:10047000771F881F991F4A95D1F708958F929F92F1
:10048000AF92BF92CF92DF92EF92FF920E94190239
:100490004B015C0188EEC82E83E0D82EE12CF12CB4
:1004A0000E941902DC01CB0188199909AA09BB092C
:1004B000883E9340A105B10558F021E0C21AD10849
:1004C000E108F10888EE880E83E0981EA11CB11C9B
:1004D000C114D104E104F10419F7FF90EF90DF900B
:1004E000CF90BF90AF909F908F900895009769F044
:1004F000FC0101900020E9F73197AF01481B590B2F
:10050000BC0181E691E00C94870080E090E00895C2
:100510000E9472041F920F920FB60F9211242F9314
:100520003F934F935F936F937F938F939F93AF937B
:10053000BF93EF93FF9381E691E00E94FD00FF914E
:10054000EF91BF91AF919F918F917F916F915F914B
:100550004F913F912F910F900FBE0F901F901895C4
:100560001F920F920FB60F9211242F938F939F9388
:10057000EF93FF93E0917101F09172018081E0911E
:100580007701F091780182FD12C0908180917A010B
:100590008F5F8F7320917B01821751F0E0917A0178
:1005A000F0E0EF59FE4F958F80937A0101C0808172
:1005B000FF91EF919F918F912F910F900FBE0F9010
:1005C0001F9018951F920F920FB60F9211242F9320
:1005D0003F938F939F93AF93BF93809159019091D5
:1005E0005A01A0915B01B0915C013091580123E068
:1005F000230F2D3720F40196A11DB11D05C026E85B
:10060000230F0296A11DB11D20935801809359011B
:1006100090935A01A0935B01B0935C0180915D01BE
:1006200090915E01A0915F01B09160010196A11DC2
:10063000B11D80935D0190935E01A0935F01B09323
:100640006001BF91AF919F918F913F912F910F903A
:100650000FBE0F901F901895789484B5826084BD6A
:1006600084B5816084BD85B5826085BD85B58160B6
:1006700085BD80916E00816080936E001092810034
:1006800080918100826080938100809181008160EF
:1006900080938100809180008160809380008091B0
:1006A000B10084608093B1008091B000816080933C
:1006B000B00080917A00846080937A0080917A0003
:1006C000826080937A0080917A00816080937A00C2
:1006D00080917A00806880937A001092C100E09146
:1006E0007101F091720182E08083E0916D01F091DF
:1006F0006E011082E0916F01F091700180E18083C2
:1007000010927901E0917501F091760186E0808385
:10071000E0917301F0917401808180618083E091A8
:100720007301F0917401808188608083E09173018E
:10073000F0917401808180688083E0917301F09171
:10074000740180818F7D808361E089E00E94DD01FA
:1007500060E088E00E94DD0161E08AE00E94DD0146
:1007600061E087E00E94DD0160E083E00E94DD013E
:1007700060E082E00E94DD0160E08EE00E94DD0129
:1007800061E08BE00E94DD0161E08DE00E94DD010F
:1007900061E08CE00E94DD0161E084E00E94DD0107
:1007A00061E085E00E94DD0161E086E00E94DD01FC
:1007B00061E08AE00E94910161E08BE00E9491017A
:1007C00082E191E00E9476020E943E0260E08BE0AE
:1007D0000E9491010E943E0261E08DE00E94910121
:1007E0008DE191E00E9476020E943E0260E08DE081
:1007F0000E9491010E943E0261E08CE00E94910102
:100800008AE291E00E9476020E943E0260E08CE063
:100810000E9491010E943E0261E084E00E949101E9
:1008200086E391E00E9476020E943E0260E084E04E
:100830000E9491010E943E0261E085E00E949101C8
:1008400080E491E00E9476020E943E0260E085E032
:100850000E9491010E943E0261E086E00E949101A7
:100860008CE491E00E9476020E943E0260E086E005
:100870000E9491010E943E020E9487019DCFE1E605
:10088000F1E01382128288EE93E0A0E0B0E084836E
:100890009583A683B78384E091E09183808385EC80
:1008A00090E09587848784EC90E09787868780EC3A
:1008B00090E0918B808B81EC90E0938B828B82EC2B
:1008C00090E0958B848B86EC90E0978B868B118ED5
:1008D000128E138E148E0895EE0FFF1F0590F49163
:1008E000E02D099481E090E0F8940C947704F8945A
:0208F000FFCF38
:1008F200000000001E018700B6006501E700C50088
:10090200D9004D757A7A6C6520526564004D757A0E
:100912007A6C6520477265656E004D757A7A6C65F2
:1009220020626C756500546F7263682052656400C2
:10093200546F72636820477265656E00546F72630C
:080942006820626C756500007D
:107E0000112484B714BE81FFF0D085E080938100F7
:107E100082E08093C00088E18093C10086E0809377
:107E2000C20080E18093C4008EE0C9D0259A86E02C
:107E300020E33CEF91E0309385002093840096BBD3
:107E4000B09BFECF1D9AA8958150A9F7CC24DD24C4
:107E500088248394B5E0AB2EA1E19A2EF3E0BF2EE7
:107E6000A2D0813461F49FD0082FAFD0023811F036
:107E7000013811F484E001C083E08DD089C08234E0
:107E800011F484E103C0853419F485E0A6D080C0E4
:107E9000853579F488D0E82EFF2485D0082F10E0AE
:107EA000102F00270E291F29000F111F8ED06801E7
:107EB0006FC0863521F484E090D080E0DECF843638
:107EC00009F040C070D06FD0082F6DD080E0C81688
:107ED00080E7D80618F4F601B7BEE895C0E0D1E017
:107EE00062D089930C17E1F7F0E0CF16F0E7DF06D8
:107EF00018F0F601B7BEE89568D007B600FCFDCFD4
:107F0000A601A0E0B1E02C9130E011968C91119780
:107F100090E0982F8827822B932B1296FA010C0160
:107F200087BEE89511244E5F5F4FF1E0A038BF0790
:107F300051F7F601A7BEE89507B600FCFDCF97BE46
:107F4000E89526C08437B1F42ED02DD0F82E2BD052
:107F50003CD0F601EF2C8F010F5F1F4F84911BD097
:107F6000EA94F801C1F70894C11CD11CFA94CF0C13
:107F7000D11C0EC0853739F428D08EE10CD085E9AC
:107F80000AD08FE07ACF813511F488E018D01DD067
:107F900080E101D065CF982F8091C00085FFFCCF94
:107FA0009093C60008958091C00087FFFCCF809118
:107FB000C00084FD01C0A8958091C6000895E0E648
:107FC000F0E098E1908380830895EDDF803219F02E
:107FD00088E0F5DFFFCF84E1DECF1F93182FE3DFCA
:107FE0001150E9F7F2DF1F91089580E0E8DFEE27F6
:047FF000FF270994CA
:027FFE00040479
:0400000300007E007B
:00000001FF
